{
  "_format": "hh-sol-artifact-1",
  "contractName": "Presale1",
  "sourceName": "contracts/Presale1.sol",
  "abi": [
    {
      "inputs": [],
      "stateMutability": "nonpayable",
      "type": "constructor"
    },
    {
      "anonymous": false,
      "inputs": [
        {
          "indexed": true,
          "internalType": "address",
          "name": "user",
          "type": "address"
        },
        {
          "indexed": true,
          "internalType": "uint256",
          "name": "amountOfToken",
          "type": "uint256"
        }
      ],
      "name": "BUY",
      "type": "event"
    },
    {
      "inputs": [
        {
          "internalType": "uint256",
          "name": "presaleId",
          "type": "uint256"
        },
        {
          "internalType": "uint256",
          "name": "_amount",
          "type": "uint256"
        }
      ],
      "name": "addMoreTokens",
      "outputs": [],
      "stateMutability": "nonpayable",
      "type": "function"
    },
    {
      "inputs": [
        {
          "internalType": "uint256",
          "name": "presaleId",
          "type": "uint256"
        }
      ],
      "name": "buy",
      "outputs": [],
      "stateMutability": "payable",
      "type": "function"
    },
    {
      "inputs": [
        {
          "internalType": "uint256",
          "name": "presaleId",
          "type": "uint256"
        }
      ],
      "name": "closePresale",
      "outputs": [],
      "stateMutability": "nonpayable",
      "type": "function"
    },
    {
      "inputs": [
        {
          "internalType": "uint256",
          "name": "presaleId",
          "type": "uint256"
        }
      ],
      "name": "getPresaleDetails",
      "outputs": [
        {
          "internalType": "contract IERC20",
          "name": "",
          "type": "address"
        },
        {
          "internalType": "address",
          "name": "",
          "type": "address"
        },
        {
          "internalType": "uint256",
          "name": "",
          "type": "uint256"
        },
        {
          "internalType": "uint256",
          "name": "",
          "type": "uint256"
        },
        {
          "internalType": "address[]",
          "name": "",
          "type": "address[]"
        },
        {
          "internalType": "uint256",
          "name": "",
          "type": "uint256"
        },
        {
          "internalType": "bool",
          "name": "",
          "type": "bool"
        }
      ],
      "stateMutability": "view",
      "type": "function"
    },
    {
      "inputs": [
        {
          "internalType": "address",
          "name": "_token",
          "type": "address"
        },
        {
          "internalType": "uint256",
          "name": "_amount",
          "type": "uint256"
        },
        {
          "internalType": "uint256",
          "name": "_price",
          "type": "uint256"
        }
      ],
      "name": "inititalize",
      "outputs": [],
      "stateMutability": "payable",
      "type": "function"
    }
  ],
  "bytecode": "0x6080604052655af3107a4000600155600160025534801561001f57600080fd5b50336000806101000a81548173ffffffffffffffffffffffffffffffffffffffff021916908373ffffffffffffffffffffffffffffffffffffffff1602179055506115a08061006f6000396000f3fe60806040526004361061004a5760003560e01c8063410a7c751461004f57806357b6336d1461006b578063bda75e6d14610094578063d96a094a146100d7578063e911b963146100f3575b600080fd5b61006960048036038101906100649190610da1565b61011c565b005b34801561007757600080fd5b50610092600480360381019061008d9190610df4565b61047e565b005b3480156100a057600080fd5b506100bb60048036038101906100b69190610e34565b610661565b6040516100ce9796959493929190610fb7565b60405180910390f35b6100f160048036038101906100ec9190610e34565b61083e565b005b3480156100ff57600080fd5b5061011a60048036038101906101159190610e34565b610b76565b005b60008390508073ffffffffffffffffffffffffffffffffffffffff1660036000600254815260200190815260200160002060000160009054906101000a900473ffffffffffffffffffffffffffffffffffffffff1673ffffffffffffffffffffffffffffffffffffffff1614156101c8576040517f08c379a00000000000000000000000000000000000000000000000000000000081526004016101bf9061108a565b60405180910390fd5b600154341461020c576040517f08c379a0000000000000000000000000000000000000000000000000000000008152600401610203906110f6565b60405180910390fd5b60036000600254815260200190815260200160002060000160009054906101000a900473ffffffffffffffffffffffffffffffffffffffff1673ffffffffffffffffffffffffffffffffffffffff1663095ea7b330856040518363ffffffff1660e01b815260040161027f929190611116565b6020604051808303816000875af115801561029e573d6000803e3d6000fd5b505050506040513d601f19601f820116820180604052508101906102c2919061116b565b508060036000600254815260200190815260200160002060000160006101000a81548173ffffffffffffffffffffffffffffffffffffffff021916908373ffffffffffffffffffffffffffffffffffffffff1602179055503360036000600254815260200190815260200160002060010160006101000a81548173ffffffffffffffffffffffffffffffffffffffff021916908373ffffffffffffffffffffffffffffffffffffffff160217905550826003600060025481526020019081526020016000206002018190555082600360006002548152602001908152602001600020600401819055508160036000600254815260200190815260200160002060030181905550600160036000600254815260200190815260200160002060060160006101000a81548160ff02191690831515021790555060008054906101000a900473ffffffffffffffffffffffffffffffffffffffff1673ffffffffffffffffffffffffffffffffffffffff166108fc349081150290604051600060405180830381858888f1935050505015801561045f573d6000803e3d6000fd5b5060026000815480929190610473906111c7565b919050555050505050565b3373ffffffffffffffffffffffffffffffffffffffff166003600084815260200190815260200160002060010160009054906101000a900473ffffffffffffffffffffffffffffffffffffffff1673ffffffffffffffffffffffffffffffffffffffff1614610522576040517f08c379a00000000000000000000000000000000000000000000000000000000081526004016105199061125c565b60405180910390fd5b61054b816003600085815260200190815260200160002060020154610ccb90919063ffffffff16565b600360008481526020019081526020016000206002018190555061058e816003600085815260200190815260200160002060040154610ccb90919063ffffffff16565b60036000848152602001908152602001600020600201819055506003600083815260200190815260200160002060000160009054906101000a900473ffffffffffffffffffffffffffffffffffffffff1673ffffffffffffffffffffffffffffffffffffffff1663095ea7b330836040518363ffffffff1660e01b8152600401610619929190611116565b6020604051808303816000875af1158015610638573d6000803e3d6000fd5b505050506040513d601f19601f8201168201806040525081019061065c919061116b565b505050565b60008060008060606000806000600360008a81526020019081526020016000206040518060e00160405290816000820160009054906101000a900473ffffffffffffffffffffffffffffffffffffffff1673ffffffffffffffffffffffffffffffffffffffff1673ffffffffffffffffffffffffffffffffffffffff1681526020016001820160009054906101000a900473ffffffffffffffffffffffffffffffffffffffff1673ffffffffffffffffffffffffffffffffffffffff1673ffffffffffffffffffffffffffffffffffffffff168152602001600282015481526020016003820154815260200160048201548152602001600582018054806020026020016040519081016040528092919081815260200182805480156107db57602002820191906000526020600020905b8160009054906101000a900473ffffffffffffffffffffffffffffffffffffffff1673ffffffffffffffffffffffffffffffffffffffff1681526020019060010190808311610791575b505050505081526020016006820160009054906101000a900460ff161515151581525050905080600001518160200151826040015183608001518460a0015185606001518660c00151975097509750975097509750975050919395979092949650565b6003600082815260200190815260200160002060060160009054906101000a900460ff166108a1576040517f08c379a0000000000000000000000000000000000000000000000000000000008152600401610898906112c8565b60405180910390fd5b60036000828152602001908152602001600020600301543410156108fa576040517f08c379a00000000000000000000000000000000000000000000000000000000081526004016108f190611334565b60405180910390fd5b6000610925600360008481526020019081526020016000206003015434610cf290919063ffffffff16565b905034816109339190611354565b9050806003600084815260200190815260200160002060040154101561098e576040517f08c379a0000000000000000000000000000000000000000000000000000000008152600401610985906113fa565b60405180910390fd5b6003600083815260200190815260200160002060000160009054906101000a900473ffffffffffffffffffffffffffffffffffffffff1673ffffffffffffffffffffffffffffffffffffffff166323b872dd6003600085815260200190815260200160002060010160009054906101000a900473ffffffffffffffffffffffffffffffffffffffff1633846040518463ffffffff1660e01b8152600401610a379392919061141a565b6020604051808303816000875af1158015610a56573d6000803e3d6000fd5b505050506040513d601f19601f82011682018060405250810190610a7a919061116b565b50806003600084815260200190815260200160002060040154610a9d9190611451565b600360008481526020019081526020016000206004018190555060036000838152602001908152602001600020600501339080600181540180825580915050600190039060005260206000200160009091909190916101000a81548173ffffffffffffffffffffffffffffffffffffffff021916908373ffffffffffffffffffffffffffffffffffffffff160217905550803373ffffffffffffffffffffffffffffffffffffffff167f11c42a99bcddc27eea781499d4d35f138c3b2fbd9da68cdd570892a40838222b60405160405180910390a35050565b6003600082815260200190815260200160002060060160009054906101000a900460ff16610bd9576040517f08c379a0000000000000000000000000000000000000000000000000000000008152600401610bd0906112c8565b60405180910390fd5b3373ffffffffffffffffffffffffffffffffffffffff166003600083815260200190815260200160002060010160009054906101000a900473ffffffffffffffffffffffffffffffffffffffff1673ffffffffffffffffffffffffffffffffffffffff1614610c7d576040517f08c379a0000000000000000000000000000000000000000000000000000000008152600401610c749061125c565b60405180910390fd5b60006003600083815260200190815260200160002060060160006101000a81548160ff0219169083151502179055506000600360008381526020019081526020016000206004018190555050565b60008183610cd99190611485565b905082811015610cec57610ceb6114db565b5b92915050565b60008183610d009190611539565b905092915050565b600080fd5b600073ffffffffffffffffffffffffffffffffffffffff82169050919050565b6000610d3882610d0d565b9050919050565b610d4881610d2d565b8114610d5357600080fd5b50565b600081359050610d6581610d3f565b92915050565b6000819050919050565b610d7e81610d6b565b8114610d8957600080fd5b50565b600081359050610d9b81610d75565b92915050565b600080600060608486031215610dba57610db9610d08565b5b6000610dc886828701610d56565b9350506020610dd986828701610d8c565b9250506040610dea86828701610d8c565b9150509250925092565b60008060408385031215610e0b57610e0a610d08565b5b6000610e1985828601610d8c565b9250506020610e2a85828601610d8c565b9150509250929050565b600060208284031215610e4a57610e49610d08565b5b6000610e5884828501610d8c565b91505092915050565b6000819050919050565b6000610e86610e81610e7c84610d0d565b610e61565b610d0d565b9050919050565b6000610e9882610e6b565b9050919050565b6000610eaa82610e8d565b9050919050565b610eba81610e9f565b82525050565b610ec981610d2d565b82525050565b610ed881610d6b565b82525050565b600081519050919050565b600082825260208201905092915050565b6000819050602082019050919050565b610f1381610d2d565b82525050565b6000610f258383610f0a565b60208301905092915050565b6000602082019050919050565b6000610f4982610ede565b610f538185610ee9565b9350610f5e83610efa565b8060005b83811015610f8f578151610f768882610f19565b9750610f8183610f31565b925050600181019050610f62565b5085935050505092915050565b60008115159050919050565b610fb181610f9c565b82525050565b600060e082019050610fcc600083018a610eb1565b610fd96020830189610ec0565b610fe66040830188610ecf565b610ff36060830187610ecf565b81810360808301526110058186610f3e565b905061101460a0830185610ecf565b61102160c0830184610fa8565b98975050505050505050565b600082825260208201905092915050565b7f616c72656164792070726573616c65204f6e0000000000000000000000000000600082015250565b600061107460128361102d565b915061107f8261103e565b602082019050919050565b600060208201905081810360008301526110a381611067565b9050919050565b7f302e303030312069732074686520706c6174666f726665657300000000000000600082015250565b60006110e060198361102d565b91506110eb826110aa565b602082019050919050565b6000602082019050818103600083015261110f816110d3565b9050919050565b600060408201905061112b6000830185610ec0565b6111386020830184610ecf565b9392505050565b61114881610f9c565b811461115357600080fd5b50565b6000815190506111658161113f565b92915050565b60006020828403121561118157611180610d08565b5b600061118f84828501611156565b91505092915050565b7f4e487b7100000000000000000000000000000000000000000000000000000000600052601160045260246000fd5b60006111d282610d6b565b91507fffffffffffffffffffffffffffffffffffffffffffffffffffffffffffffffff82141561120557611204611198565b5b600182019050919050565b7f696e76616c696420757365720000000000000000000000000000000000000000600082015250565b6000611246600c8361102d565b915061125182611210565b602082019050919050565b6000602082019050818103600083015261127581611239565b9050919050565b7f6e6f742061637469766500000000000000000000000000000000000000000000600082015250565b60006112b2600a8361102d565b91506112bd8261127c565b602082019050919050565b600060208201905081810360008301526112e1816112a5565b9050919050565b7f76616c7565206c657373207468616e2070726963652000000000000000000000600082015250565b600061131e60168361102d565b9150611329826112e8565b602082019050919050565b6000602082019050818103600083015261134d81611311565b9050919050565b600061135f82610d6b565b915061136a83610d6b565b9250817fffffffffffffffffffffffffffffffffffffffffffffffffffffffffffffffff04831182151516156113a3576113a2611198565b5b828202905092915050565b7f696e73756666696369656e742072656d61696e696e6720616d6f756e74000000600082015250565b60006113e4601d8361102d565b91506113ef826113ae565b602082019050919050565b60006020820190508181036000830152611413816113d7565b9050919050565b600060608201905061142f6000830186610ec0565b61143c6020830185610ec0565b6114496040830184610ecf565b949350505050565b600061145c82610d6b565b915061146783610d6b565b92508282101561147a57611479611198565b5b828203905092915050565b600061149082610d6b565b915061149b83610d6b565b9250827fffffffffffffffffffffffffffffffffffffffffffffffffffffffffffffffff038211156114d0576114cf611198565b5b828201905092915050565b7f4e487b7100000000000000000000000000000000000000000000000000000000600052600160045260246000fd5b7f4e487b7100000000000000000000000000000000000000000000000000000000600052601260045260246000fd5b600061154482610d6b565b915061154f83610d6b565b92508261155f5761155e61150a565b5b82820490509291505056fea2646970667358221220f3b26803307e8f6ab863fa84f993765d5b10c02fdcf60109e7553c91cd96636c64736f6c634300080a0033",
  "linkReferences": {},
  "deployedLinkReferences": {}
}