{
  "_format": "hh-sol-artifact-1",
  "contractName": "TokenFactory",
  "sourceName": "contracts/TokenFactory.sol",
  "abi": [
    {
      "anonymous": false,
      "inputs": [
        {
          "indexed": true,
          "internalType": "address",
          "name": "tokenAddress",
          "type": "address"
        },
        {
          "indexed": false,
          "internalType": "string",
          "name": "name",
          "type": "string"
        },
        {
          "indexed": false,
          "internalType": "string",
          "name": "symbol",
          "type": "string"
        },
        {
          "indexed": false,
          "internalType": "uint8",
          "name": "decimals",
          "type": "uint8"
        }
      ],
      "name": "TokenCreated",
      "type": "event"
    },
    {
      "inputs": [
        {
          "internalType": "string",
          "name": "name",
          "type": "string"
        },
        {
          "internalType": "string",
          "name": "symbol",
          "type": "string"
        },
        {
          "internalType": "uint8",
          "name": "decimals",
          "type": "uint8"
        }
      ],
      "name": "createToken",
      "outputs": [],
      "stateMutability": "nonpayable",
      "type": "function"
    },
    {
      "inputs": [
        {
          "internalType": "uint256",
          "name": "",
          "type": "uint256"
        }
      ],
      "name": "deployedTokens",
      "outputs": [
        {
          "internalType": "address",
          "name": "",
          "type": "address"
        }
      ],
      "stateMutability": "view",
      "type": "function"
    },
    {
      "inputs": [],
      "name": "getDeployedTokens",
      "outputs": [
        {
          "internalType": "address[]",
          "name": "",
          "type": "address[]"
        }
      ],
      "stateMutability": "view",
      "type": "function"
    }
  ],
  "bytecode": "0x608060405234801561001057600080fd5b50612895806100206000396000f3fe60806040523480156200001157600080fd5b5060043610620000465760003560e01c8063622ae7aa146200004b578063e8a0aed3146200006d578063ec81aadb146200008d575b600080fd5b62000055620000c3565b604051620000649190620003a1565b60405180910390f35b6200008b600480360381019062000085919062000579565b62000153565b005b620000ab6004803603810190620000a591906200064e565b62000251565b604051620000ba919062000691565b60405180910390f35b606060008054806020026020016040519081016040528092919081815260200182805480156200014957602002820191906000526020600020905b8160009054906101000a900473ffffffffffffffffffffffffffffffffffffffff1673ffffffffffffffffffffffffffffffffffffffff1681526020019060010190808311620000fe575b5050505050905090565b6000838383604051620001669062000291565b620001749392919062000752565b604051809103906000f08015801562000191573d6000803e3d6000fd5b5090506000819080600181540180825580915050600190039060005260206000200160009091909190916101000a81548173ffffffffffffffffffffffffffffffffffffffff021916908373ffffffffffffffffffffffffffffffffffffffff1602179055508073ffffffffffffffffffffffffffffffffffffffff167f7161233ddf53e833cd562d450a9b35abd4971efae61c4e9ca8ed2be3b5a6672e858585604051620002439392919062000752565b60405180910390a250505050565b600081815481106200026257600080fd5b906000526020600020016000915054906101000a900473ffffffffffffffffffffffffffffffffffffffff1681565b6120c2806200079e83390190565b600081519050919050565b600082825260208201905092915050565b6000819050602082019050919050565b600073ffffffffffffffffffffffffffffffffffffffff82169050919050565b6000620002f882620002cb565b9050919050565b6200030a81620002eb565b82525050565b60006200031e8383620002ff565b60208301905092915050565b6000602082019050919050565b600062000344826200029f565b620003508185620002aa565b93506200035d83620002bb565b8060005b838110156200039457815162000378888262000310565b975062000385836200032a565b92505060018101905062000361565b5085935050505092915050565b60006020820190508181036000830152620003bd818462000337565b905092915050565b6000604051905090565b600080fd5b600080fd5b600080fd5b600080fd5b6000601f19601f8301169050919050565b7f4e487b7100000000000000000000000000000000000000000000000000000000600052604160045260246000fd5b6200042e82620003e3565b810181811067ffffffffffffffff8211171562000450576200044f620003f4565b5b80604052505050565b600062000465620003c5565b905062000473828262000423565b919050565b600067ffffffffffffffff821115620004965762000495620003f4565b5b620004a182620003e3565b9050602081019050919050565b82818337600083830152505050565b6000620004d4620004ce8462000478565b62000459565b905082815260208101848484011115620004f357620004f2620003de565b5b62000500848285620004ae565b509392505050565b600082601f83011262000520576200051f620003d9565b5b813562000532848260208601620004bd565b91505092915050565b600060ff82169050919050565b62000553816200053b565b81146200055f57600080fd5b50565b600081359050620005738162000548565b92915050565b600080600060608486031215620005955762000594620003cf565b5b600084013567ffffffffffffffff811115620005b657620005b5620003d4565b5b620005c48682870162000508565b935050602084013567ffffffffffffffff811115620005e857620005e7620003d4565b5b620005f68682870162000508565b9250506040620006098682870162000562565b9150509250925092565b6000819050919050565b620006288162000613565b81146200063457600080fd5b50565b60008135905062000648816200061d565b92915050565b600060208284031215620006675762000666620003cf565b5b6000620006778482850162000637565b91505092915050565b6200068b81620002eb565b82525050565b6000602082019050620006a8600083018462000680565b92915050565b600081519050919050565b600082825260208201905092915050565b60005b83811015620006ea578082015181840152602081019050620006cd565b83811115620006fa576000848401525b50505050565b60006200070d82620006ae565b620007198185620006b9565b93506200072b818560208601620006ca565b6200073681620003e3565b840191505092915050565b6200074c816200053b565b82525050565b600060608201905081810360008301526200076e818662000700565b9050818103602083015262000784818562000700565b905062000795604083018462000741565b94935050505056fe60806040523480156200001157600080fd5b50604051620020c2380380620020c28339818101604052810190620000379190620004e1565b82600090805190602001906200004f92919062000256565b5081600190805190602001906200006892919062000256565b5080600260006101000a81548160ff021916908360ff160217905550620000b43382600a62000098919062000708565b620f4240620000a8919062000759565b6200010460201b60201c565b600046905033600260016101000a81548173ffffffffffffffffffffffffffffffffffffffff021916908373ffffffffffffffffffffffffffffffffffffffff160217905550505050506200092d565b600073ffffffffffffffffffffffffffffffffffffffff168273ffffffffffffffffffffffffffffffffffffffff16141562000177576040517f08c379a00000000000000000000000000000000000000000000000000000000081526004016200016e906200081b565b60405180910390fd5b80600460008282546200018b91906200083d565b9250508190555080600360008473ffffffffffffffffffffffffffffffffffffffff1673ffffffffffffffffffffffffffffffffffffffff1681526020019081526020016000206000828254620001e391906200083d565b925050819055508173ffffffffffffffffffffffffffffffffffffffff16600073ffffffffffffffffffffffffffffffffffffffff167fddf252ad1be2c89b69c2b068fc378daa952ba7f163c4a11628f55a4df523b3ef836040516200024a9190620008ab565b60405180910390a35050565b8280546200026490620008f7565b90600052602060002090601f016020900481019282620002885760008555620002d4565b82601f10620002a357805160ff1916838001178555620002d4565b82800160010185558215620002d4579182015b82811115620002d3578251825591602001919060010190620002b6565b5b509050620002e39190620002e7565b5090565b5b8082111562000302576000816000905550600101620002e8565b5090565b6000604051905090565b600080fd5b600080fd5b600080fd5b600080fd5b6000601f19601f8301169050919050565b7f4e487b7100000000000000000000000000000000000000000000000000000000600052604160045260246000fd5b6200036f8262000324565b810181811067ffffffffffffffff8211171562000391576200039062000335565b5b80604052505050565b6000620003a662000306565b9050620003b4828262000364565b919050565b600067ffffffffffffffff821115620003d757620003d662000335565b5b620003e28262000324565b9050602081019050919050565b60005b838110156200040f578082015181840152602081019050620003f2565b838111156200041f576000848401525b50505050565b60006200043c6200043684620003b9565b6200039a565b9050828152602081018484840111156200045b576200045a6200031f565b5b62000468848285620003ef565b509392505050565b600082601f8301126200048857620004876200031a565b5b81516200049a84826020860162000425565b91505092915050565b600060ff82169050919050565b620004bb81620004a3565b8114620004c757600080fd5b50565b600081519050620004db81620004b0565b92915050565b600080600060608486031215620004fd57620004fc62000310565b5b600084015167ffffffffffffffff8111156200051e576200051d62000315565b5b6200052c8682870162000470565b935050602084015167ffffffffffffffff81111562000550576200054f62000315565b5b6200055e8682870162000470565b92505060406200057186828701620004ca565b9150509250925092565b7f4e487b7100000000000000000000000000000000000000000000000000000000600052601160045260246000fd5b60008160011c9050919050565b6000808291508390505b60018511156200060957808604811115620005e157620005e06200057b565b5b6001851615620005f15780820291505b80810290506200060185620005aa565b9450620005c1565b94509492505050565b600082620006245760019050620006f7565b81620006345760009050620006f7565b81600181146200064d576002811462000658576200068e565b6001915050620006f7565b60ff8411156200066d576200066c6200057b565b5b8360020a9150848211156200068757620006866200057b565b5b50620006f7565b5060208310610133831016604e8410600b8410161715620006c85782820a905083811115620006c257620006c16200057b565b5b620006f7565b620006d78484846001620005b7565b92509050818404811115620006f157620006f06200057b565b5b81810290505b9392505050565b6000819050919050565b60006200071582620006fe565b91506200072283620004a3565b9250620007517fffffffffffffffffffffffffffffffffffffffffffffffffffffffffffffffff848462000612565b905092915050565b60006200076682620006fe565b91506200077383620006fe565b9250817fffffffffffffffffffffffffffffffffffffffffffffffffffffffffffffffff0483118215151615620007af57620007ae6200057b565b5b828202905092915050565b600082825260208201905092915050565b7f45524332303a206d696e7420746f20746865207a65726f206164647265737300600082015250565b600062000803601f83620007ba565b91506200081082620007cb565b602082019050919050565b600060208201905081810360008301526200083681620007f4565b9050919050565b60006200084a82620006fe565b91506200085783620006fe565b9250827fffffffffffffffffffffffffffffffffffffffffffffffffffffffffffffffff038211156200088f576200088e6200057b565b5b828201905092915050565b620008a581620006fe565b82525050565b6000602082019050620008c260008301846200089a565b92915050565b7f4e487b7100000000000000000000000000000000000000000000000000000000600052602260045260246000fd5b600060028204905060018216806200091057607f821691505b60208210811415620009275762000926620008c8565b5b50919050565b611785806200093d6000396000f3fe608060405234801561001057600080fd5b50600436106100cf5760003560e01c806342966c681161008c578063a9059cbb11610066578063a9059cbb1461023c578063b4a99a4e1461026c578063dd62ed3e1461028a578063f2fde38b146102ba576100cf565b806342966c68146101be57806370a08231146101ee57806395d89b411461021e576100cf565b806306fdde03146100d4578063095ea7b3146100f257806318160ddd1461012257806323b872dd14610140578063313ce5671461017057806340c10f191461018e575b600080fd5b6100dc6102ea565b6040516100e991906110de565b60405180910390f35b61010c60048036038101906101079190611199565b61037c565b60405161011991906111f4565b60405180910390f35b61012a61046e565b604051610137919061121e565b60405180910390f35b61015a60048036038101906101559190611239565b610478565b60405161016791906111f4565b60405180910390f35b61017861050d565b60405161018591906112a8565b60405180910390f35b6101a860048036038101906101a39190611199565b610524565b6040516101b591906111f4565b60405180910390f35b6101d860048036038101906101d391906112c3565b6105af565b6040516101e591906111f4565b60405180910390f35b610208600480360381019061020391906112f0565b610633565b604051610215919061121e565b60405180910390f35b61022661067c565b60405161023391906110de565b60405180910390f35b61025660048036038101906102519190611199565b61070e565b60405161026391906111f4565b60405180910390f35b61027461091c565b604051610281919061132c565b60405180910390f35b6102a4600480360381019061029f9190611347565b610946565b6040516102b1919061121e565b60405180910390f35b6102d460048036038101906102cf91906112f0565b61096b565b6040516102e1919061132c565b60405180910390f35b6060600080546102f9906113b6565b80601f0160208091040260200160405190810160405280929190818152602001828054610325906113b6565b80156103725780601f1061034757610100808354040283529160200191610372565b820191906000526020600020905b81548152906001019060200180831161035557829003601f168201915b5050505050905090565b600081600560003373ffffffffffffffffffffffffffffffffffffffff1673ffffffffffffffffffffffffffffffffffffffff16815260200190815260200160002060008573ffffffffffffffffffffffffffffffffffffffff1673ffffffffffffffffffffffffffffffffffffffff168152602001908152602001600020819055508273ffffffffffffffffffffffffffffffffffffffff163373ffffffffffffffffffffffffffffffffffffffff167f8c5be1e5ebec7d5bd14f71427d1e84f3dd0314c0f7b2291e5b200ac8c7c3b9258460405161045c919061121e565b60405180910390a36001905092915050565b6000600454905090565b60008073ffffffffffffffffffffffffffffffffffffffff168373ffffffffffffffffffffffffffffffffffffffff161415806104e157503073ffffffffffffffffffffffffffffffffffffffff168373ffffffffffffffffffffffffffffffffffffffff1614155b6104ea57600080fd5b6104f5848484610a4d565b50610501848484610c15565b50600190509392505050565b6000600260009054906101000a900460ff16905090565b600061052e61091c565b73ffffffffffffffffffffffffffffffffffffffff163373ffffffffffffffffffffffffffffffffffffffff161461059b576040517f08c379a000000000000000000000000000000000000000000000000000000000815260040161059290611434565b60405180910390fd5b6105a58383610db3565b6001905092915050565b60008073ffffffffffffffffffffffffffffffffffffffff163373ffffffffffffffffffffffffffffffffffffffff161415610620576040517f08c379a0000000000000000000000000000000000000000000000000000000008152600401610617906114a0565b60405180910390fd5b61062a3383610efc565b60019050919050565b6000600360008373ffffffffffffffffffffffffffffffffffffffff1673ffffffffffffffffffffffffffffffffffffffff168152602001908152602001600020549050919050565b60606001805461068b906113b6565b80601f01602080910402602001604051908101604052809291908181526020018280546106b7906113b6565b80156107045780601f106106d957610100808354040283529160200191610704565b820191906000526020600020905b8154815290600101906020018083116106e757829003601f168201915b5050505050905090565b60008073ffffffffffffffffffffffffffffffffffffffff168373ffffffffffffffffffffffffffffffffffffffff1614158061077757503073ffffffffffffffffffffffffffffffffffffffff168373ffffffffffffffffffffffffffffffffffffffff1614155b61078057600080fd5b6000600360003373ffffffffffffffffffffffffffffffffffffffff1673ffffffffffffffffffffffffffffffffffffffff16815260200190815260200160002054905082811015610807576040517f08c379a00000000000000000000000000000000000000000000000000000000081526004016107fe9061150c565b60405180910390fd5b8281610813919061155b565b600360003373ffffffffffffffffffffffffffffffffffffffff1673ffffffffffffffffffffffffffffffffffffffff1681526020019081526020016000208190555082600360008673ffffffffffffffffffffffffffffffffffffffff1673ffffffffffffffffffffffffffffffffffffffff16815260200190815260200160002060008282546108a5919061158f565b925050819055508373ffffffffffffffffffffffffffffffffffffffff163373ffffffffffffffffffffffffffffffffffffffff167fddf252ad1be2c89b69c2b068fc378daa952ba7f163c4a11628f55a4df523b3ef85604051610909919061121e565b60405180910390a3600191505092915050565b6000600260019054906101000a900473ffffffffffffffffffffffffffffffffffffffff16905090565b6005602052816000526040600020602052806000526040600020600091509150505481565b600061097561091c565b73ffffffffffffffffffffffffffffffffffffffff163373ffffffffffffffffffffffffffffffffffffffff16146109e2576040517f08c379a00000000000000000000000000000000000000000000000000000000081526004016109d990611434565b60405180910390fd5b81600260016101000a81548173ffffffffffffffffffffffffffffffffffffffff021916908373ffffffffffffffffffffffffffffffffffffffff160217905550600260019054906101000a900473ffffffffffffffffffffffffffffffffffffffff169050919050565b600080600560008673ffffffffffffffffffffffffffffffffffffffff1673ffffffffffffffffffffffffffffffffffffffff16815260200190815260200160002060008573ffffffffffffffffffffffffffffffffffffffff1673ffffffffffffffffffffffffffffffffffffffff16815260200190815260200160002054905082811015610b12576040517f08c379a0000000000000000000000000000000000000000000000000000000008152600401610b0990611631565b60405180910390fd5b60008382610b20919061155b565b905080600560008873ffffffffffffffffffffffffffffffffffffffff1673ffffffffffffffffffffffffffffffffffffffff16815260200190815260200160002060008773ffffffffffffffffffffffffffffffffffffffff1673ffffffffffffffffffffffffffffffffffffffff168152602001908152602001600020819055508473ffffffffffffffffffffffffffffffffffffffff168673ffffffffffffffffffffffffffffffffffffffff167f8c5be1e5ebec7d5bd14f71427d1e84f3dd0314c0f7b2291e5b200ac8c7c3b92583604051610c00919061121e565b60405180910390a36001925050509392505050565b600080600360008673ffffffffffffffffffffffffffffffffffffffff1673ffffffffffffffffffffffffffffffffffffffff16815260200190815260200160002054905082811015610c9d576040517f08c379a0000000000000000000000000000000000000000000000000000000008152600401610c949061150c565b60405180910390fd5b8281610ca9919061155b565b600360008773ffffffffffffffffffffffffffffffffffffffff1673ffffffffffffffffffffffffffffffffffffffff1681526020019081526020016000208190555082600360008673ffffffffffffffffffffffffffffffffffffffff1673ffffffffffffffffffffffffffffffffffffffff1681526020019081526020016000206000828254610d3b919061158f565b925050819055508373ffffffffffffffffffffffffffffffffffffffff168573ffffffffffffffffffffffffffffffffffffffff167fddf252ad1be2c89b69c2b068fc378daa952ba7f163c4a11628f55a4df523b3ef85604051610d9f919061121e565b60405180910390a360019150509392505050565b600073ffffffffffffffffffffffffffffffffffffffff168273ffffffffffffffffffffffffffffffffffffffff161415610e23576040517f08c379a0000000000000000000000000000000000000000000000000000000008152600401610e1a9061169d565b60405180910390fd5b8060046000828254610e35919061158f565b9250508190555080600360008473ffffffffffffffffffffffffffffffffffffffff1673ffffffffffffffffffffffffffffffffffffffff1681526020019081526020016000206000828254610e8b919061158f565b925050819055508173ffffffffffffffffffffffffffffffffffffffff16600073ffffffffffffffffffffffffffffffffffffffff167fddf252ad1be2c89b69c2b068fc378daa952ba7f163c4a11628f55a4df523b3ef83604051610ef0919061121e565b60405180910390a35050565b600073ffffffffffffffffffffffffffffffffffffffff168273ffffffffffffffffffffffffffffffffffffffff161415610f6c576040517f08c379a0000000000000000000000000000000000000000000000000000000008152600401610f639061172f565b60405180910390fd5b80600360008473ffffffffffffffffffffffffffffffffffffffff1673ffffffffffffffffffffffffffffffffffffffff1681526020019081526020016000206000828254610fbb919061155b565b925050819055508060046000828254610fd4919061155b565b92505081905550600073ffffffffffffffffffffffffffffffffffffffff168273ffffffffffffffffffffffffffffffffffffffff167fddf252ad1be2c89b69c2b068fc378daa952ba7f163c4a11628f55a4df523b3ef83604051611039919061121e565b60405180910390a35050565b600081519050919050565b600082825260208201905092915050565b60005b8381101561107f578082015181840152602081019050611064565b8381111561108e576000848401525b50505050565b6000601f19601f8301169050919050565b60006110b082611045565b6110ba8185611050565b93506110ca818560208601611061565b6110d381611094565b840191505092915050565b600060208201905081810360008301526110f881846110a5565b905092915050565b600080fd5b600073ffffffffffffffffffffffffffffffffffffffff82169050919050565b600061113082611105565b9050919050565b61114081611125565b811461114b57600080fd5b50565b60008135905061115d81611137565b92915050565b6000819050919050565b61117681611163565b811461118157600080fd5b50565b6000813590506111938161116d565b92915050565b600080604083850312156111b0576111af611100565b5b60006111be8582860161114e565b92505060206111cf85828601611184565b9150509250929050565b60008115159050919050565b6111ee816111d9565b82525050565b600060208201905061120960008301846111e5565b92915050565b61121881611163565b82525050565b6000602082019050611233600083018461120f565b92915050565b60008060006060848603121561125257611251611100565b5b60006112608682870161114e565b93505060206112718682870161114e565b925050604061128286828701611184565b9150509250925092565b600060ff82169050919050565b6112a28161128c565b82525050565b60006020820190506112bd6000830184611299565b92915050565b6000602082840312156112d9576112d8611100565b5b60006112e784828501611184565b91505092915050565b60006020828403121561130657611305611100565b5b60006113148482850161114e565b91505092915050565b61132681611125565b82525050565b6000602082019050611341600083018461131d565b92915050565b6000806040838503121561135e5761135d611100565b5b600061136c8582860161114e565b925050602061137d8582860161114e565b9150509250929050565b7f4e487b7100000000000000000000000000000000000000000000000000000000600052602260045260246000fd5b600060028204905060018216806113ce57607f821691505b602082108114156113e2576113e1611387565b5b50919050565b7f416e7973776170563345524332303a20464f5242494444454e00000000000000600082015250565b600061141e601983611050565b9150611429826113e8565b602082019050919050565b6000602082019050818103600083015261144d81611411565b9050919050565b7f416e7973776170563345524332303a2061646472657373283078302900000000600082015250565b600061148a601c83611050565b915061149582611454565b602082019050919050565b600060208201905081810360008301526114b98161147d565b9050919050565b7f7472616e7366657220616d6f756e7420657863656564732062616c616e636500600082015250565b60006114f6601f83611050565b9150611501826114c0565b602082019050919050565b60006020820190508181036000830152611525816114e9565b9050919050565b7f4e487b7100000000000000000000000000000000000000000000000000000000600052601160045260246000fd5b600061156682611163565b915061157183611163565b9250828210156115845761158361152c565b5b828203905092915050565b600061159a82611163565b91506115a583611163565b9250827fffffffffffffffffffffffffffffffffffffffffffffffffffffffffffffffff038211156115da576115d961152c565b5b828201905092915050565b7f72657175657374206578636565647320616c6c6f77616e636500000000000000600082015250565b600061161b601983611050565b9150611626826115e5565b602082019050919050565b6000602082019050818103600083015261164a8161160e565b9050919050565b7f45524332303a206d696e7420746f20746865207a65726f206164647265737300600082015250565b6000611687601f83611050565b915061169282611651565b602082019050919050565b600060208201905081810360008301526116b68161167a565b9050919050565b7f45524332303a206275726e2066726f6d20746865207a65726f2061646472657360008201527f7300000000000000000000000000000000000000000000000000000000000000602082015250565b6000611719602183611050565b9150611724826116bd565b604082019050919050565b600060208201905081810360008301526117488161170c565b905091905056fea2646970667358221220320ae889635d4fabb21daa33b3ee024e4b559fe99c2fdc8e9cb69b50a688820564736f6c634300080a0033a2646970667358221220853f060d816564e026ed8b2cf4708d5e9bcfe3b24f009bb3f9233a1258afdf2164736f6c634300080a0033",
  "linkReferences": {},
  "deployedLinkReferences": {}
}