{
  "_format": "hh-sol-artifact-1",
  "contractName": "Airdrop",
  "sourceName": "contracts/Airdrop.sol",
  "abi": [
    {
      "inputs": [],
      "stateMutability": "nonpayable",
      "type": "constructor"
    },
    {
      "anonymous": false,
      "inputs": [
        {
          "indexed": true,
          "internalType": "address",
          "name": "user",
          "type": "address"
        }
      ],
      "name": "Claim",
      "type": "event"
    },
    {
      "inputs": [
        {
          "internalType": "uint256",
          "name": "airdropId",
          "type": "uint256"
        },
        {
          "internalType": "uint256",
          "name": "_amount",
          "type": "uint256"
        }
      ],
      "name": "addMoreTokens",
      "outputs": [],
      "stateMutability": "nonpayable",
      "type": "function"
    },
    {
      "inputs": [
        {
          "internalType": "uint256",
          "name": "airdropId",
          "type": "uint256"
        }
      ],
      "name": "claim",
      "outputs": [],
      "stateMutability": "nonpayable",
      "type": "function"
    },
    {
      "inputs": [
        {
          "internalType": "uint256",
          "name": "airdropId",
          "type": "uint256"
        }
      ],
      "name": "closeAirdrop",
      "outputs": [],
      "stateMutability": "nonpayable",
      "type": "function"
    },
    {
      "inputs": [
        {
          "internalType": "uint256",
          "name": "airdropId",
          "type": "uint256"
        }
      ],
      "name": "getAirdropDetails",
      "outputs": [
        {
          "internalType": "contract IERC20",
          "name": "",
          "type": "address"
        },
        {
          "internalType": "address",
          "name": "",
          "type": "address"
        },
        {
          "internalType": "uint256",
          "name": "",
          "type": "uint256"
        },
        {
          "internalType": "uint256",
          "name": "",
          "type": "uint256"
        },
        {
          "internalType": "address[]",
          "name": "",
          "type": "address[]"
        },
        {
          "internalType": "uint256",
          "name": "",
          "type": "uint256"
        },
        {
          "internalType": "bool",
          "name": "",
          "type": "bool"
        }
      ],
      "stateMutability": "view",
      "type": "function"
    },
    {
      "inputs": [
        {
          "internalType": "address",
          "name": "_token",
          "type": "address"
        },
        {
          "internalType": "uint256",
          "name": "_amount",
          "type": "uint256"
        },
        {
          "internalType": "uint256",
          "name": "_amountPeruser",
          "type": "uint256"
        }
      ],
      "name": "inititalize",
      "outputs": [],
      "stateMutability": "nonpayable",
      "type": "function"
    }
  ],
  "bytecode": "0x60806040526064600155600160025534801561001a57600080fd5b50336000806101000a81548173ffffffffffffffffffffffffffffffffffffffff021916908373ffffffffffffffffffffffffffffffffffffffff1602179055506118aa8061006a6000396000f3fe608060405234801561001057600080fd5b50600436106100575760003560e01c80630dee7d901461005c578063379607f514610078578063410a7c751461009457806357b6336d146100b0578063832acdb5146100cc575b600080fd5b61007660048036038101906100719190610f35565b610102565b005b610092600480360381019061008d9190610f35565b610322565b005b6100ae60048036038101906100a99190610fc0565b6106c2565b005b6100ca60048036038101906100c59190611013565b610b11565b005b6100e660048036038101906100e19190610f35565b610cf6565b6040516100f997969594939291906111a9565b60405180910390f35b6003600082815260200190815260200160002060060160009054906101000a900460ff16610165576040517f08c379a000000000000000000000000000000000000000000000000000000000815260040161015c9061127c565b60405180910390fd5b3373ffffffffffffffffffffffffffffffffffffffff166003600083815260200190815260200160002060010160009054906101000a900473ffffffffffffffffffffffffffffffffffffffff1673ffffffffffffffffffffffffffffffffffffffff1614610209576040517f08c379a0000000000000000000000000000000000000000000000000000000008152600401610200906112e8565b60405180910390fd5b60006003600083815260200190815260200160002060060160006101000a81548160ff0219169083151502179055506003600082815260200190815260200160002060000160009054906101000a900473ffffffffffffffffffffffffffffffffffffffff1673ffffffffffffffffffffffffffffffffffffffff1663a9059cbb3360036000858152602001908152602001600020600301546040518363ffffffff1660e01b81526004016102bf929190611308565b6020604051808303816000875af11580156102de573d6000803e3d6000fd5b505050506040513d601f19601f82011682018060405250810190610302919061135d565b506000600360008381526020019081526020016000206003018190555050565b6003600082815260200190815260200160002060060160009054906101000a900460ff16610385576040517f08c379a000000000000000000000000000000000000000000000000000000000815260040161037c9061127c565b60405180910390fd5b3373ffffffffffffffffffffffffffffffffffffffff166004600083815260200190815260200160002060009054906101000a900473ffffffffffffffffffffffffffffffffffffffff1673ffffffffffffffffffffffffffffffffffffffff161415610427576040517f08c379a000000000000000000000000000000000000000000000000000000000815260040161041e906113d6565b60405180910390fd5b600360008281526020019081526020016000206005015460036000838152602001908152602001600020600301541015610496576040517f08c379a000000000000000000000000000000000000000000000000000000000815260040161048d90611442565b60405180910390fd5b6003600082815260200190815260200160002060000160009054906101000a900473ffffffffffffffffffffffffffffffffffffffff1673ffffffffffffffffffffffffffffffffffffffff1663a9059cbb3360036000858152602001908152602001600020600501546040518363ffffffff1660e01b815260040161051d929190611308565b6020604051808303816000875af115801561053c573d6000803e3d6000fd5b505050506040513d601f19601f82011682018060405250810190610560919061135d565b50600360008281526020019081526020016000206005015460036000838152602001908152602001600020600301546105999190611491565b600360008381526020019081526020016000206003018190555060036000828152602001908152602001600020600401339080600181540180825580915050600190039060005260206000200160009091909190916101000a81548173ffffffffffffffffffffffffffffffffffffffff021916908373ffffffffffffffffffffffffffffffffffffffff160217905550336004600083815260200190815260200160002060006101000a81548173ffffffffffffffffffffffffffffffffffffffff021916908373ffffffffffffffffffffffffffffffffffffffff1602179055503373ffffffffffffffffffffffffffffffffffffffff167f0c7ef932d3b91976772937f18d5ef9b39a9930bef486b576c374f047c4b512dc60405160405180910390a250565b60008390508073ffffffffffffffffffffffffffffffffffffffff1660036000600254815260200190815260200160002060000160009054906101000a900473ffffffffffffffffffffffffffffffffffffffff1673ffffffffffffffffffffffffffffffffffffffff16141561076e576040517f08c379a000000000000000000000000000000000000000000000000000000000815260040161076590611511565b60405180910390fd5b60036000600254815260200190815260200160002060000160009054906101000a900473ffffffffffffffffffffffffffffffffffffffff1673ffffffffffffffffffffffffffffffffffffffff166323b872dd3330866040518463ffffffff1660e01b81526004016107e393929190611531565b6020604051808303816000875af1158015610802573d6000803e3d6000fd5b505050506040513d601f19601f82011682018060405250810190610826919061135d565b508060036000600254815260200190815260200160002060000160006101000a81548173ffffffffffffffffffffffffffffffffffffffff021916908373ffffffffffffffffffffffffffffffffffffffff1602179055503360036000600254815260200190815260200160002060010160006101000a81548173ffffffffffffffffffffffffffffffffffffffff021916908373ffffffffffffffffffffffffffffffffffffffff160217905550826003600060025481526020019081526020016000206002018190555082600360006002548152602001908152602001600020600301819055508160036000600254815260200190815260200160002060050181905550600160036000600254815260200190815260200160002060060160006101000a81548160ff02191690831515021790555060036000600254815260200190815260200160002060000160009054906101000a900473ffffffffffffffffffffffffffffffffffffffff1673ffffffffffffffffffffffffffffffffffffffff1663a9059cbb60008054906101000a900473ffffffffffffffffffffffffffffffffffffffff1660036000600254815260200190815260200160002060000160009054906101000a900473ffffffffffffffffffffffffffffffffffffffff1673ffffffffffffffffffffffffffffffffffffffff1663313ce5676040518163ffffffff1660e01b8152600401602060405180830381865afa158015610a55573d6000803e3d6000fd5b505050506040513d601f19601f82011682018060405250810190610a7991906115a1565b600a610a859190611701565b600154610a92919061174c565b6040518363ffffffff1660e01b8152600401610aaf929190611308565b6020604051808303816000875af1158015610ace573d6000803e3d6000fd5b505050506040513d601f19601f82011682018060405250810190610af2919061135d565b5060026000815480929190610b06906117a6565b919050555050505050565b3373ffffffffffffffffffffffffffffffffffffffff166003600084815260200190815260200160002060010160009054906101000a900473ffffffffffffffffffffffffffffffffffffffff1673ffffffffffffffffffffffffffffffffffffffff1614610bb5576040517f08c379a0000000000000000000000000000000000000000000000000000000008152600401610bac906112e8565b60405180910390fd5b610bde816003600085815260200190815260200160002060020154610ed390919063ffffffff16565b6003600084815260200190815260200160002060020181905550610c21816003600085815260200190815260200160002060030154610ed390919063ffffffff16565b60036000848152602001908152602001600020600201819055506003600083815260200190815260200160002060000160009054906101000a900473ffffffffffffffffffffffffffffffffffffffff1673ffffffffffffffffffffffffffffffffffffffff166323b872dd3330846040518463ffffffff1660e01b8152600401610cae93929190611531565b6020604051808303816000875af1158015610ccd573d6000803e3d6000fd5b505050506040513d601f19601f82011682018060405250810190610cf1919061135d565b505050565b60008060008060606000806000600360008a81526020019081526020016000206040518060e00160405290816000820160009054906101000a900473ffffffffffffffffffffffffffffffffffffffff1673ffffffffffffffffffffffffffffffffffffffff1673ffffffffffffffffffffffffffffffffffffffff1681526020016001820160009054906101000a900473ffffffffffffffffffffffffffffffffffffffff1673ffffffffffffffffffffffffffffffffffffffff1673ffffffffffffffffffffffffffffffffffffffff168152602001600282015481526020016003820154815260200160048201805480602002602001604051908101604052809291908181526020018280548015610e6657602002820191906000526020600020905b8160009054906101000a900473ffffffffffffffffffffffffffffffffffffffff1673ffffffffffffffffffffffffffffffffffffffff1681526020019060010190808311610e1c575b50505050508152602001600582015481526020016006820160009054906101000a900460ff1615151515815250509050806000015181602001518260400151836060015184608001518560a001518660c00151975097509750975097509750975050919395979092949650565b60008183610ee191906117ef565b905082811015610ef457610ef3611845565b5b92915050565b600080fd5b6000819050919050565b610f1281610eff565b8114610f1d57600080fd5b50565b600081359050610f2f81610f09565b92915050565b600060208284031215610f4b57610f4a610efa565b5b6000610f5984828501610f20565b91505092915050565b600073ffffffffffffffffffffffffffffffffffffffff82169050919050565b6000610f8d82610f62565b9050919050565b610f9d81610f82565b8114610fa857600080fd5b50565b600081359050610fba81610f94565b92915050565b600080600060608486031215610fd957610fd8610efa565b5b6000610fe786828701610fab565b9350506020610ff886828701610f20565b925050604061100986828701610f20565b9150509250925092565b6000806040838503121561102a57611029610efa565b5b600061103885828601610f20565b925050602061104985828601610f20565b9150509250929050565b6000819050919050565b600061107861107361106e84610f62565b611053565b610f62565b9050919050565b600061108a8261105d565b9050919050565b600061109c8261107f565b9050919050565b6110ac81611091565b82525050565b6110bb81610f82565b82525050565b6110ca81610eff565b82525050565b600081519050919050565b600082825260208201905092915050565b6000819050602082019050919050565b61110581610f82565b82525050565b600061111783836110fc565b60208301905092915050565b6000602082019050919050565b600061113b826110d0565b61114581856110db565b9350611150836110ec565b8060005b83811015611181578151611168888261110b565b975061117383611123565b925050600181019050611154565b5085935050505092915050565b60008115159050919050565b6111a38161118e565b82525050565b600060e0820190506111be600083018a6110a3565b6111cb60208301896110b2565b6111d860408301886110c1565b6111e560608301876110c1565b81810360808301526111f78186611130565b905061120660a08301856110c1565b61121360c083018461119a565b98975050505050505050565b600082825260208201905092915050565b7f6e6f742061637469766500000000000000000000000000000000000000000000600082015250565b6000611266600a8361121f565b915061127182611230565b602082019050919050565b6000602082019050818103600083015261129581611259565b9050919050565b7f696e76616c696420757365720000000000000000000000000000000000000000600082015250565b60006112d2600c8361121f565b91506112dd8261129c565b602082019050919050565b60006020820190508181036000830152611301816112c5565b9050919050565b600060408201905061131d60008301856110b2565b61132a60208301846110c1565b9392505050565b61133a8161118e565b811461134557600080fd5b50565b60008151905061135781611331565b92915050565b60006020828403121561137357611372610efa565b5b600061138184828501611348565b91505092915050565b7f616c726561647920636c61696d65640000000000000000000000000000000000600082015250565b60006113c0600f8361121f565b91506113cb8261138a565b602082019050919050565b600060208201905081810360008301526113ef816113b3565b9050919050565b7f696e73756666696369656e742072656d61696e696e6720616d6f756e74000000600082015250565b600061142c601d8361121f565b9150611437826113f6565b602082019050919050565b6000602082019050818103600083015261145b8161141f565b9050919050565b7f4e487b7100000000000000000000000000000000000000000000000000000000600052601160045260246000fd5b600061149c82610eff565b91506114a783610eff565b9250828210156114ba576114b9611462565b5b828203905092915050565b7f616c72656164792061697264726f707065640000000000000000000000000000600082015250565b60006114fb60128361121f565b9150611506826114c5565b602082019050919050565b6000602082019050818103600083015261152a816114ee565b9050919050565b600060608201905061154660008301866110b2565b61155360208301856110b2565b61156060408301846110c1565b949350505050565b600060ff82169050919050565b61157e81611568565b811461158957600080fd5b50565b60008151905061159b81611575565b92915050565b6000602082840312156115b7576115b6610efa565b5b60006115c58482850161158c565b91505092915050565b60008160011c9050919050565b6000808291508390505b60018511156116255780860481111561160157611600611462565b5b60018516156116105780820291505b808102905061161e856115ce565b94506115e5565b94509492505050565b60008261163e57600190506116fa565b8161164c57600090506116fa565b8160018114611662576002811461166c5761169b565b60019150506116fa565b60ff84111561167e5761167d611462565b5b8360020a91508482111561169557611694611462565b5b506116fa565b5060208310610133831016604e8410600b84101617156116d05782820a9050838111156116cb576116ca611462565b5b6116fa565b6116dd84848460016115db565b925090508184048111156116f4576116f3611462565b5b81810290505b9392505050565b600061170c82610eff565b915061171783611568565b92506117447fffffffffffffffffffffffffffffffffffffffffffffffffffffffffffffffff848461162e565b905092915050565b600061175782610eff565b915061176283610eff565b9250817fffffffffffffffffffffffffffffffffffffffffffffffffffffffffffffffff048311821515161561179b5761179a611462565b5b828202905092915050565b60006117b182610eff565b91507fffffffffffffffffffffffffffffffffffffffffffffffffffffffffffffffff8214156117e4576117e3611462565b5b600182019050919050565b60006117fa82610eff565b915061180583610eff565b9250827fffffffffffffffffffffffffffffffffffffffffffffffffffffffffffffffff0382111561183a57611839611462565b5b828201905092915050565b7f4e487b7100000000000000000000000000000000000000000000000000000000600052600160045260246000fdfea264697066735822122076bf09646c50316c4088664f51fe39b574619dcb35d9078b6ef8fa7f47fb26d364736f6c634300080a0033",
  "linkReferences": {},
  "deployedLinkReferences": {}
}