{
  "_format": "hh-sol-artifact-1",
  "contractName": "Launchpad",
  "sourceName": "contracts/Launchpad.sol",
  "abi": [
    {
      "inputs": [],
      "stateMutability": "nonpayable",
      "type": "constructor"
    },
    {
      "anonymous": false,
      "inputs": [
        {
          "indexed": true,
          "internalType": "uint256",
          "name": "count",
          "type": "uint256"
        },
        {
          "indexed": true,
          "internalType": "uint256",
          "name": "amount",
          "type": "uint256"
        }
      ],
      "name": "AddMore",
      "type": "event"
    },
    {
      "anonymous": false,
      "inputs": [
        {
          "indexed": true,
          "internalType": "uint256",
          "name": "count",
          "type": "uint256"
        }
      ],
      "name": "ClosePresale",
      "type": "event"
    },
    {
      "anonymous": false,
      "inputs": [
        {
          "indexed": true,
          "internalType": "address",
          "name": "tokenAddress",
          "type": "address"
        },
        {
          "indexed": true,
          "internalType": "address",
          "name": "from",
          "type": "address"
        },
        {
          "indexed": true,
          "internalType": "address",
          "name": "to",
          "type": "address"
        },
        {
          "indexed": false,
          "internalType": "uint256",
          "name": "amount",
          "type": "uint256"
        }
      ],
      "name": "CreatePresale",
      "type": "event"
    },
    {
      "anonymous": false,
      "inputs": [
        {
          "indexed": true,
          "internalType": "uint256",
          "name": "count",
          "type": "uint256"
        },
        {
          "indexed": true,
          "internalType": "uint256",
          "name": "amount",
          "type": "uint256"
        }
      ],
      "name": "InvesWithBNB",
      "type": "event"
    },
    {
      "anonymous": false,
      "inputs": [
        {
          "indexed": true,
          "internalType": "uint256",
          "name": "count",
          "type": "uint256"
        },
        {
          "indexed": true,
          "internalType": "uint256",
          "name": "amount",
          "type": "uint256"
        }
      ],
      "name": "InvestWithUSDT",
      "type": "event"
    },
    {
      "anonymous": false,
      "inputs": [
        {
          "indexed": true,
          "internalType": "uint256",
          "name": "count",
          "type": "uint256"
        },
        {
          "indexed": true,
          "internalType": "uint256",
          "name": "softCap",
          "type": "uint256"
        },
        {
          "indexed": true,
          "internalType": "uint256",
          "name": "hardCap",
          "type": "uint256"
        }
      ],
      "name": "UpdateCaps",
      "type": "event"
    },
    {
      "anonymous": false,
      "inputs": [
        {
          "indexed": true,
          "internalType": "uint256",
          "name": "count",
          "type": "uint256"
        },
        {
          "indexed": true,
          "internalType": "uint256",
          "name": "minimumInvestment",
          "type": "uint256"
        }
      ],
      "name": "UpdateMinInvestment",
      "type": "event"
    },
    {
      "anonymous": false,
      "inputs": [
        {
          "indexed": true,
          "internalType": "uint256",
          "name": "count",
          "type": "uint256"
        },
        {
          "indexed": true,
          "internalType": "uint256",
          "name": "price",
          "type": "uint256"
        }
      ],
      "name": "UpdatePrice",
      "type": "event"
    },
    {
      "anonymous": false,
      "inputs": [
        {
          "indexed": true,
          "internalType": "uint256",
          "name": "count",
          "type": "uint256"
        },
        {
          "indexed": true,
          "internalType": "uint256",
          "name": "startingtime",
          "type": "uint256"
        },
        {
          "indexed": true,
          "internalType": "uint256",
          "name": "endingTime",
          "type": "uint256"
        }
      ],
      "name": "UpdateTime",
      "type": "event"
    },
    {
      "inputs": [
        {
          "internalType": "uint256",
          "name": "_count",
          "type": "uint256"
        },
        {
          "internalType": "uint256",
          "name": "amount",
          "type": "uint256"
        }
      ],
      "name": "addMoreTokens",
      "outputs": [
        {
          "internalType": "uint256",
          "name": "",
          "type": "uint256"
        }
      ],
      "stateMutability": "nonpayable",
      "type": "function"
    },
    {
      "inputs": [
        {
          "internalType": "uint256",
          "name": "_usdt",
          "type": "uint256"
        },
        {
          "internalType": "uint256",
          "name": "_count",
          "type": "uint256"
        }
      ],
      "name": "calculateTokens",
      "outputs": [
        {
          "internalType": "uint256",
          "name": "",
          "type": "uint256"
        }
      ],
      "stateMutability": "view",
      "type": "function"
    },
    {
      "inputs": [
        {
          "internalType": "uint256",
          "name": "_count",
          "type": "uint256"
        }
      ],
      "name": "closePresale",
      "outputs": [
        {
          "internalType": "bool",
          "name": "",
          "type": "bool"
        }
      ],
      "stateMutability": "nonpayable",
      "type": "function"
    },
    {
      "inputs": [
        {
          "internalType": "address",
          "name": "_tokenAddress",
          "type": "address"
        },
        {
          "internalType": "string",
          "name": "_metadata",
          "type": "string"
        },
        {
          "internalType": "uint256",
          "name": "_amount",
          "type": "uint256"
        },
        {
          "internalType": "uint256",
          "name": "_price",
          "type": "uint256"
        },
        {
          "internalType": "uint256",
          "name": "_startTime",
          "type": "uint256"
        },
        {
          "internalType": "uint256",
          "name": "_endTime",
          "type": "uint256"
        },
        {
          "internalType": "uint256",
          "name": "_softCap",
          "type": "uint256"
        },
        {
          "internalType": "uint256",
          "name": "_hardCap",
          "type": "uint256"
        },
        {
          "internalType": "uint256",
          "name": "_minimumInvestment",
          "type": "uint256"
        },
        {
          "internalType": "uint256",
          "name": "_maximumInvestment",
          "type": "uint256"
        }
      ],
      "name": "createPresaleBNB",
      "outputs": [
        {
          "internalType": "bool",
          "name": "",
          "type": "bool"
        }
      ],
      "stateMutability": "nonpayable",
      "type": "function"
    },
    {
      "inputs": [
        {
          "internalType": "address",
          "name": "_tokenAddress",
          "type": "address"
        },
        {
          "internalType": "string",
          "name": "_metadata",
          "type": "string"
        },
        {
          "internalType": "contract IERC20",
          "name": "paymentToken",
          "type": "address"
        },
        {
          "internalType": "uint256",
          "name": "_amount",
          "type": "uint256"
        },
        {
          "internalType": "uint256",
          "name": "_price",
          "type": "uint256"
        },
        {
          "internalType": "uint256",
          "name": "_startTime",
          "type": "uint256"
        },
        {
          "internalType": "uint256",
          "name": "_endTime",
          "type": "uint256"
        },
        {
          "internalType": "uint256",
          "name": "_softCap",
          "type": "uint256"
        },
        {
          "internalType": "uint256",
          "name": "_hardCap",
          "type": "uint256"
        },
        {
          "internalType": "uint256",
          "name": "_minimumInvestment",
          "type": "uint256"
        },
        {
          "internalType": "uint256",
          "name": "_maximumInvestment",
          "type": "uint256"
        }
      ],
      "name": "createPresaleToken",
      "outputs": [
        {
          "internalType": "bool",
          "name": "",
          "type": "bool"
        }
      ],
      "stateMutability": "nonpayable",
      "type": "function"
    },
    {
      "inputs": [
        {
          "internalType": "uint256",
          "name": "_counter",
          "type": "uint256"
        }
      ],
      "name": "getPresaleDetail",
      "outputs": [
        {
          "internalType": "address",
          "name": "_tokenAddress",
          "type": "address"
        },
        {
          "internalType": "address",
          "name": "_seller",
          "type": "address"
        },
        {
          "internalType": "contract IERC20",
          "name": "paymentToken",
          "type": "address"
        },
        {
          "internalType": "string",
          "name": "_metadata",
          "type": "string"
        },
        {
          "internalType": "uint256",
          "name": "_startTime",
          "type": "uint256"
        },
        {
          "internalType": "uint256",
          "name": "_endTime",
          "type": "uint256"
        },
        {
          "internalType": "uint256",
          "name": "_softCap",
          "type": "uint256"
        },
        {
          "internalType": "uint256",
          "name": "_hardCap",
          "type": "uint256"
        },
        {
          "internalType": "uint256",
          "name": "_minimumInvestment",
          "type": "uint256"
        },
        {
          "internalType": "uint256",
          "name": "_maximumInvestment",
          "type": "uint256"
        },
        {
          "internalType": "uint256",
          "name": "_remainingAmount",
          "type": "uint256"
        },
        {
          "internalType": "uint256",
          "name": "price",
          "type": "uint256"
        }
      ],
      "stateMutability": "view",
      "type": "function"
    },
    {
      "inputs": [
        {
          "internalType": "uint256",
          "name": "_count",
          "type": "uint256"
        }
      ],
      "name": "getPresaleStatus",
      "outputs": [
        {
          "internalType": "bool",
          "name": "",
          "type": "bool"
        }
      ],
      "stateMutability": "view",
      "type": "function"
    },
    {
      "inputs": [
        {
          "internalType": "uint256",
          "name": "_count",
          "type": "uint256"
        },
        {
          "internalType": "uint256",
          "name": "_amount",
          "type": "uint256"
        }
      ],
      "name": "investWithBNB",
      "outputs": [
        {
          "internalType": "bool",
          "name": "",
          "type": "bool"
        }
      ],
      "stateMutability": "payable",
      "type": "function"
    },
    {
      "inputs": [
        {
          "internalType": "uint256",
          "name": "_count",
          "type": "uint256"
        },
        {
          "internalType": "uint256",
          "name": "_USDTamount",
          "type": "uint256"
        }
      ],
      "name": "investWithUSDT",
      "outputs": [
        {
          "internalType": "uint256",
          "name": "",
          "type": "uint256"
        }
      ],
      "stateMutability": "nonpayable",
      "type": "function"
    },
    {
      "inputs": [
        {
          "internalType": "address",
          "name": "",
          "type": "address"
        }
      ],
      "name": "isPurchasedListed",
      "outputs": [
        {
          "internalType": "bool",
          "name": "",
          "type": "bool"
        }
      ],
      "stateMutability": "view",
      "type": "function"
    },
    {
      "inputs": [],
      "name": "totalPresale",
      "outputs": [
        {
          "internalType": "uint256",
          "name": "",
          "type": "uint256"
        }
      ],
      "stateMutability": "view",
      "type": "function"
    },
    {
      "inputs": [
        {
          "internalType": "uint256",
          "name": "_count",
          "type": "uint256"
        },
        {
          "internalType": "uint256",
          "name": "_softCap",
          "type": "uint256"
        },
        {
          "internalType": "uint256",
          "name": "_hardCap",
          "type": "uint256"
        }
      ],
      "name": "updateCaps",
      "outputs": [],
      "stateMutability": "nonpayable",
      "type": "function"
    },
    {
      "inputs": [
        {
          "internalType": "uint256",
          "name": "_count",
          "type": "uint256"
        },
        {
          "internalType": "uint256",
          "name": "_minInvest",
          "type": "uint256"
        }
      ],
      "name": "updateMinInvestment",
      "outputs": [],
      "stateMutability": "nonpayable",
      "type": "function"
    },
    {
      "inputs": [
        {
          "internalType": "uint256",
          "name": "_count",
          "type": "uint256"
        },
        {
          "internalType": "uint256",
          "name": "_price",
          "type": "uint256"
        }
      ],
      "name": "updatePrice",
      "outputs": [],
      "stateMutability": "nonpayable",
      "type": "function"
    },
    {
      "inputs": [
        {
          "internalType": "uint256",
          "name": "_count",
          "type": "uint256"
        },
        {
          "internalType": "uint256",
          "name": "_startingtime",
          "type": "uint256"
        },
        {
          "internalType": "uint256",
          "name": "_endingTime",
          "type": "uint256"
        }
      ],
      "name": "updateTime",
      "outputs": [],
      "stateMutability": "nonpayable",
      "type": "function"
    },
    {
      "inputs": [
        {
          "internalType": "uint256",
          "name": "_count",
          "type": "uint256"
        },
        {
          "internalType": "address",
          "name": "_tokenAddress",
          "type": "address"
        }
      ],
      "name": "withdrawTokens",
      "outputs": [
        {
          "internalType": "bool",
          "name": "",
          "type": "bool"
        }
      ],
      "stateMutability": "nonpayable",
      "type": "function"
    }
  ],
  "bytecode": "0x608060405266038d7ea4c68000600155600160045534801561002057600080fd5b50336000806101000a81548173ffffffffffffffffffffffffffffffffffffffff021916908373ffffffffffffffffffffffffffffffffffffffff160217905550613f38806100706000396000f3fe6080604052600436106100f35760003560e01c8063903cc5831161008a578063ebac650511610059578063ebac65051461039a578063edc17ddf146103c3578063ef229e34146103f3578063fc5b6ca11461043b576100f3565b8063903cc583146102a6578063b780f2a6146102e3578063e4ac669b14610320578063e911b9631461035d576100f3565b806357b6336d116100c657806357b6336d146101d85780636bd3d4061461021557806372bf81a61461024057806382367b2d1461027d576100f3565b80631e6fc5f3146100f8578063398d92bb14610121578063414b8e831461015e5780634d200dfd1461019b575b600080fd5b34801561010457600080fd5b5061011f600480360381019061011a9190612dcf565b610464565b005b34801561012d57600080fd5b5061014860048036038101906101439190612e80565b610572565b6040516101559190612edb565b60405180910390f35b34801561016a57600080fd5b5061018560048036038101906101809190612ef6565b610720565b6040516101929190612edb565b60405180910390f35b3480156101a757600080fd5b506101c260048036038101906101bd9190612f23565b610740565b6040516101cf9190612edb565b60405180910390f35b3480156101e457600080fd5b506101ff60048036038101906101fa9190612f50565b61097b565b60405161020c9190612f9f565b60405180910390f35b34801561022157600080fd5b5061022a610dd8565b6040516102379190612f9f565b60405180910390f35b34801561024c57600080fd5b506102676004803603810190610262919061313e565b610de2565b6040516102749190612edb565b60405180910390f35b34801561028957600080fd5b506102a4600480360381019061029f9190612f50565b61120d565b005b3480156102b257600080fd5b506102cd60048036038101906102c89190612f50565b6112fe565b6040516102da9190612f9f565b60405180910390f35b3480156102ef57600080fd5b5061030a6004803603810190610305919061324e565b611565565b6040516103179190612edb565b60405180910390f35b34801561032c57600080fd5b5061034760048036038101906103429190612f50565b61194c565b6040516103549190612f9f565b60405180910390f35b34801561036957600080fd5b50610384600480360381019061037f9190612f23565b612051565b6040516103919190612edb565b60405180910390f35b3480156103a657600080fd5b506103c160048036038101906103bc9190612dcf565b61228f565b005b6103dd60048036038101906103d89190612f50565b61239d565b6040516103ea9190612edb565b60405180910390f35b3480156103ff57600080fd5b5061041a60048036038101906104159190612f23565b612a1f565b6040516104329c9b9a9998979695949392919061343f565b60405180910390f35b34801561044757600080fd5b50610462600480360381019061045d9190612f50565b612b98565b005b6002600084815260200190815260200160002060030160009054906101000a900473ffffffffffffffffffffffffffffffffffffffff1673ffffffffffffffffffffffffffffffffffffffff163373ffffffffffffffffffffffffffffffffffffffff1614610508576040517f08c379a00000000000000000000000000000000000000000000000000000000081526004016104ff9061354c565b60405180910390fd5b8160026000858152602001908152602001600020600601819055508060026000858152602001908152602001600020600701819055508082847fe42616d35e911a9bddf11a60118c262326e1ba63e75cec829e684104d35e1fa660405160405180910390a4505050565b60006002600084815260200190815260200160002060030160009054906101000a900473ffffffffffffffffffffffffffffffffffffffff1673ffffffffffffffffffffffffffffffffffffffff163373ffffffffffffffffffffffffffffffffffffffff1614610618576040517f08c379a000000000000000000000000000000000000000000000000000000000815260040161060f906135b8565b60405180910390fd5b60008290508073ffffffffffffffffffffffffffffffffffffffff1663a9059cbb338373ffffffffffffffffffffffffffffffffffffffff166370a08231306040518263ffffffff1660e01b815260040161067391906135d8565b602060405180830381865afa158015610690573d6000803e3d6000fd5b505050506040513d601f19601f820116820180604052508101906106b49190613608565b6040518363ffffffff1660e01b81526004016106d1929190613635565b6020604051808303816000875af11580156106f0573d6000803e3d6000fd5b505050506040513d601f19601f82011682018060405250810190610714919061368a565b50600191505092915050565b60036020528060005260406000206000915054906101000a900460ff1681565b60008060026000848152602001908152602001600020604051806101c00160405290816000820160009054906101000a900473ffffffffffffffffffffffffffffffffffffffff1673ffffffffffffffffffffffffffffffffffffffff1673ffffffffffffffffffffffffffffffffffffffff1681526020016001820180546107c8906136e6565b80601f01602080910402602001604051908101604052809291908181526020018280546107f4906136e6565b80156108415780601f1061081657610100808354040283529160200191610841565b820191906000526020600020905b81548152906001019060200180831161082457829003601f168201915b505050505081526020016002820160009054906101000a900473ffffffffffffffffffffffffffffffffffffffff1673ffffffffffffffffffffffffffffffffffffffff1673ffffffffffffffffffffffffffffffffffffffff1681526020016003820160009054906101000a900473ffffffffffffffffffffffffffffffffffffffff1673ffffffffffffffffffffffffffffffffffffffff1673ffffffffffffffffffffffffffffffffffffffff168152602001600482015481526020016005820154815260200160068201548152602001600782015481526020016008820154815260200160098201548152602001600a8201548152602001600b8201548152602001600c8201548152602001600d820160009054906101000a900460ff1615151515815250509050806101a00151915050919050565b60008060026000858152602001908152602001600020604051806101c00160405290816000820160009054906101000a900473ffffffffffffffffffffffffffffffffffffffff1673ffffffffffffffffffffffffffffffffffffffff1673ffffffffffffffffffffffffffffffffffffffff168152602001600182018054610a03906136e6565b80601f0160208091040260200160405190810160405280929190818152602001828054610a2f906136e6565b8015610a7c5780601f10610a5157610100808354040283529160200191610a7c565b820191906000526020600020905b815481529060010190602001808311610a5f57829003601f168201915b505050505081526020016002820160009054906101000a900473ffffffffffffffffffffffffffffffffffffffff1673ffffffffffffffffffffffffffffffffffffffff1673ffffffffffffffffffffffffffffffffffffffff1681526020016003820160009054906101000a900473ffffffffffffffffffffffffffffffffffffffff1673ffffffffffffffffffffffffffffffffffffffff1673ffffffffffffffffffffffffffffffffffffffff168152602001600482015481526020016005820154815260200160068201548152602001600782015481526020016008820154815260200160098201548152602001600a8201548152602001600b8201548152602001600c8201548152602001600d820160009054906101000a900460ff16151515158152505090506000816000015190506002600086815260200190815260200160002060030160009054906101000a900473ffffffffffffffffffffffffffffffffffffffff1673ffffffffffffffffffffffffffffffffffffffff163373ffffffffffffffffffffffffffffffffffffffff1614610c55576040517f08c379a0000000000000000000000000000000000000000000000000000000008152600401610c4c9061354c565b60405180910390fd5b836002600087815260200190815260200160002060040154610c779190613747565b600260008781526020019081526020016000206004018190555060008173ffffffffffffffffffffffffffffffffffffffff166370a08231306040518263ffffffff1660e01b8152600401610ccc91906135d8565b602060405180830381865afa158015610ce9573d6000803e3d6000fd5b505050506040513d601f19601f82011682018060405250810190610d0d9190613608565b90508481610d1b9190613747565b90508173ffffffffffffffffffffffffffffffffffffffff166323b872dd3330886040518463ffffffff1660e01b8152600401610d5a9392919061379d565b6020604051808303816000875af1158015610d79573d6000803e3d6000fd5b505050506040513d601f19601f82011682018060405250810190610d9d919061368a565b5084867f5b74108d7ed083273cd39e4142769d76125755bd28ba99d17ec06125674af0d860405160405180910390a380935050505092915050565b6000600454905090565b600080600260006004548152602001908152602001600020905060008d90506000151582600d0160009054906101000a900460ff16151514610e59576040517f08c379a0000000000000000000000000000000000000000000000000000000008152600401610e5090613820565b60405180910390fd5b8a8173ffffffffffffffffffffffffffffffffffffffff166370a08231336040518263ffffffff1660e01b8152600401610e9391906135d8565b602060405180830381865afa158015610eb0573d6000803e3d6000fd5b505050506040513d601f19601f82011682018060405250810190610ed49190613608565b1015610f15576040517f08c379a0000000000000000000000000000000000000000000000000000000008152600401610f0c9061388c565b60405180910390fd5b816008015482600901541015610f60576040517f08c379a0000000000000000000000000000000000000000000000000000000008152600401610f579061391e565b60405180910390fd5b81600a015482600b01541015610fab576040517f08c379a0000000000000000000000000000000000000000000000000000000008152600401610fa2906139b0565b60405180910390fd5b8073ffffffffffffffffffffffffffffffffffffffff166323b872dd33308e6040518463ffffffff1660e01b8152600401610fe89392919061379d565b6020604051808303816000875af1158015611007573d6000803e3d6000fd5b505050506040513d601f19601f8201168201806040525081019061102b919061368a565b508d8260000160006101000a81548173ffffffffffffffffffffffffffffffffffffffff021916908373ffffffffffffffffffffffffffffffffffffffff160217905550338260030160006101000a81548173ffffffffffffffffffffffffffffffffffffffff021916908373ffffffffffffffffffffffffffffffffffffffff1602179055508c8260010190805190602001906110ca929190612ce2565b508982600501819055508b8260020160006101000a81548173ffffffffffffffffffffffffffffffffffffffff021916908373ffffffffffffffffffffffffffffffffffffffff1602179055508a82600401819055508782600701819055508882600601819055508682600801819055508582600901819055508482600a01819055508382600b01819055508a82600c0181905550600182600d0160006101000a81548160ff0219169083151502179055503073ffffffffffffffffffffffffffffffffffffffff163373ffffffffffffffffffffffffffffffffffffffff168f73ffffffffffffffffffffffffffffffffffffffff167f5229a91a9376ec7b4adbcce19e20faeb9909f1e26ff136e9ac42febdd62328fb8e6040516111f09190612f9f565b60405180910390a46001925050509b9a5050505050505050505050565b6002600083815260200190815260200160002060030160009054906101000a900473ffffffffffffffffffffffffffffffffffffffff1673ffffffffffffffffffffffffffffffffffffffff163373ffffffffffffffffffffffffffffffffffffffff16146112b1576040517f08c379a00000000000000000000000000000000000000000000000000000000081526004016112a89061354c565b60405180910390fd5b80600260008481526020019081526020016000206005018190555080827f8b49109cd5767f43f65aaaae99075135a684e87312ed89a5e0d69e96bed715cb60405160405180910390a35050565b60008060026000848152602001908152602001600020604051806101c00160405290816000820160009054906101000a900473ffffffffffffffffffffffffffffffffffffffff1673ffffffffffffffffffffffffffffffffffffffff1673ffffffffffffffffffffffffffffffffffffffff168152602001600182018054611386906136e6565b80601f01602080910402602001604051908101604052809291908181526020018280546113b2906136e6565b80156113ff5780601f106113d4576101008083540402835291602001916113ff565b820191906000526020600020905b8154815290600101906020018083116113e257829003601f168201915b505050505081526020016002820160009054906101000a900473ffffffffffffffffffffffffffffffffffffffff1673ffffffffffffffffffffffffffffffffffffffff1673ffffffffffffffffffffffffffffffffffffffff1681526020016003820160009054906101000a900473ffffffffffffffffffffffffffffffffffffffff1673ffffffffffffffffffffffffffffffffffffffff1673ffffffffffffffffffffffffffffffffffffffff168152602001600482015481526020016005820154815260200160068201548152602001600782015481526020016008820154815260200160098201548152602001600a8201548152602001600b8201548152602001600c8201548152602001600d820160009054906101000a900460ff161515151581525050905061155c670de0b6b3a764000061154e8360a0015187612c8990919063ffffffff16565b612ccc90919063ffffffff16565b91505092915050565b600080600260006004548152602001908152602001600020905060008c90506000151582600d0160009054906101000a900460ff161515146115dc576040517f08c379a00000000000000000000000000000000000000000000000000000000081526004016115d390613820565b60405180910390fd5b8a8173ffffffffffffffffffffffffffffffffffffffff166370a08231336040518263ffffffff1660e01b815260040161161691906135d8565b602060405180830381865afa158015611633573d6000803e3d6000fd5b505050506040513d601f19601f820116820180604052508101906116579190613608565b1015611698576040517f08c379a000000000000000000000000000000000000000000000000000000000815260040161168f9061388c565b60405180910390fd5b8160080154826009015410156116e3576040517f08c379a00000000000000000000000000000000000000000000000000000000081526004016116da9061391e565b60405180910390fd5b81600a015482600b0154101561172e576040517f08c379a0000000000000000000000000000000000000000000000000000000008152600401611725906139b0565b60405180910390fd5b8073ffffffffffffffffffffffffffffffffffffffff166323b872dd33308e6040518463ffffffff1660e01b815260040161176b9392919061379d565b6020604051808303816000875af115801561178a573d6000803e3d6000fd5b505050506040513d601f19601f820116820180604052508101906117ae919061368a565b508c8260000160006101000a81548173ffffffffffffffffffffffffffffffffffffffff021916908373ffffffffffffffffffffffffffffffffffffffff160217905550338260030160006101000a81548173ffffffffffffffffffffffffffffffffffffffff021916908373ffffffffffffffffffffffffffffffffffffffff1602179055508b82600101908051906020019061184d929190612ce2565b508982600501819055508a82600401819055508782600701819055508882600601819055508682600801819055508582600901819055508482600a01819055508382600b01819055508a82600c0181905550600182600d0160006101000a81548160ff0219169083151502179055503073ffffffffffffffffffffffffffffffffffffffff163373ffffffffffffffffffffffffffffffffffffffff168e73ffffffffffffffffffffffffffffffffffffffff167f5229a91a9376ec7b4adbcce19e20faeb9909f1e26ff136e9ac42febdd62328fb8e6040516119309190612f9f565b60405180910390a46001925050509a9950505050505050505050565b6000600360003373ffffffffffffffffffffffffffffffffffffffff1673ffffffffffffffffffffffffffffffffffffffff16815260200190815260200160002060009054906101000a900460ff16156119db576040517f08c379a00000000000000000000000000000000000000000000000000000000081526004016119d290613a1c565b60405180910390fd5b600060026000858152602001908152602001600020604051806101c00160405290816000820160009054906101000a900473ffffffffffffffffffffffffffffffffffffffff1673ffffffffffffffffffffffffffffffffffffffff1673ffffffffffffffffffffffffffffffffffffffff168152602001600182018054611a62906136e6565b80601f0160208091040260200160405190810160405280929190818152602001828054611a8e906136e6565b8015611adb5780601f10611ab057610100808354040283529160200191611adb565b820191906000526020600020905b815481529060010190602001808311611abe57829003601f168201915b505050505081526020016002820160009054906101000a900473ffffffffffffffffffffffffffffffffffffffff1673ffffffffffffffffffffffffffffffffffffffff1673ffffffffffffffffffffffffffffffffffffffff1681526020016003820160009054906101000a900473ffffffffffffffffffffffffffffffffffffffff1673ffffffffffffffffffffffffffffffffffffffff1673ffffffffffffffffffffffffffffffffffffffff168152602001600482015481526020016005820154815260200160068201548152602001600782015481526020016008820154815260200160098201548152602001600a8201548152602001600b8201548152602001600c8201548152602001600d820160009054906101000a900460ff16151515158152505090506000816000015190506000611c43670de0b6b3a7640000611c358560a0015188612c8990919063ffffffff16565b612ccc90919063ffffffff16565b9050826101600151851115611c8d576040517f08c379a0000000000000000000000000000000000000000000000000000000008152600401611c8490613a88565b60405180910390fd5b826101400151851015611cd5576040517f08c379a0000000000000000000000000000000000000000000000000000000008152600401611ccc90613af4565b60405180910390fd5b60011515836101a00151151514611d21576040517f08c379a0000000000000000000000000000000000000000000000000000000008152600401611d1890613b60565b60405180910390fd5b428360e001511015611d68576040517f08c379a0000000000000000000000000000000000000000000000000000000008152600401611d5f90613bcc565b60405180910390fd5b428360c001511115611daf576040517f08c379a0000000000000000000000000000000000000000000000000000000008152600401611da690613c38565b60405180910390fd5b808273ffffffffffffffffffffffffffffffffffffffff166370a08231306040518263ffffffff1660e01b8152600401611de991906135d8565b602060405180830381865afa158015611e06573d6000803e3d6000fd5b505050506040513d601f19601f82011682018060405250810190611e2a9190613608565b1015611e6b576040517f08c379a0000000000000000000000000000000000000000000000000000000008152600401611e6290613ca4565b60405180910390fd5b6002600087815260200190815260200160002060020160009054906101000a900473ffffffffffffffffffffffffffffffffffffffff1673ffffffffffffffffffffffffffffffffffffffff166323b872dd338560600151886040518463ffffffff1660e01b8152600401611ee29392919061379d565b6020604051808303816000875af1158015611f01573d6000803e3d6000fd5b505050506040513d601f19601f82011682018060405250810190611f25919061368a565b508173ffffffffffffffffffffffffffffffffffffffff1663a9059cbb33836040518363ffffffff1660e01b8152600401611f61929190613635565b6020604051808303816000875af1158015611f80573d6000803e3d6000fd5b505050506040513d601f19601f82011682018060405250810190611fa4919061368a565b50808360800151611fb59190613cc4565b8361018001818152505084867f522ac18f5cfc1e8081014a5c4eeaeb5eda0888ae34f8d9ceade8cd81a140b28e60405160405180910390a36001600360003373ffffffffffffffffffffffffffffffffffffffff1673ffffffffffffffffffffffffffffffffffffffff16815260200190815260200160002060006101000a81548160ff02191690831515021790555080935050505092915050565b6000806002600084815260200190815260200160002060000160009054906101000a900473ffffffffffffffffffffffffffffffffffffffff1690506002600084815260200190815260200160002060030160009054906101000a900473ffffffffffffffffffffffffffffffffffffffff1673ffffffffffffffffffffffffffffffffffffffff163373ffffffffffffffffffffffffffffffffffffffff1614612131576040517f08c379a0000000000000000000000000000000000000000000000000000000008152600401612128906135b8565b60405180910390fd5b8073ffffffffffffffffffffffffffffffffffffffff1663a9059cbb338373ffffffffffffffffffffffffffffffffffffffff166370a08231306040518263ffffffff1660e01b815260040161218791906135d8565b602060405180830381865afa1580156121a4573d6000803e3d6000fd5b505050506040513d601f19601f820116820180604052508101906121c89190613608565b6040518363ffffffff1660e01b81526004016121e5929190613635565b6020604051808303816000875af1158015612204573d6000803e3d6000fd5b505050506040513d601f19601f82011682018060405250810190612228919061368a565b50600060026000858152602001908152602001600020600d0160006101000a81548160ff021916908315150217905550827f2249a92b2b1f3766687391b73110e53c43bfd6a975b918418170d55542e01bdf60405160405180910390a26001915050919050565b6002600084815260200190815260200160002060030160009054906101000a900473ffffffffffffffffffffffffffffffffffffffff1673ffffffffffffffffffffffffffffffffffffffff163373ffffffffffffffffffffffffffffffffffffffff1614612333576040517f08c379a000000000000000000000000000000000000000000000000000000000815260040161232a9061354c565b60405180910390fd5b8160026000858152602001908152602001600020600801819055508060026000858152602001908152602001600020600901819055508082847ff700df2a81d886e46586cca2b8c1ce18024cd8eca5e6cd8f8fcb3802b612ccce60405160405180910390a4505050565b6000600360003373ffffffffffffffffffffffffffffffffffffffff1673ffffffffffffffffffffffffffffffffffffffff16815260200190815260200160002060009054906101000a900460ff161561242c576040517f08c379a000000000000000000000000000000000000000000000000000000000815260040161242390613a1c565b60405180910390fd5b600060026000858152602001908152602001600020604051806101c00160405290816000820160009054906101000a900473ffffffffffffffffffffffffffffffffffffffff1673ffffffffffffffffffffffffffffffffffffffff1673ffffffffffffffffffffffffffffffffffffffff1681526020016001820180546124b3906136e6565b80601f01602080910402602001604051908101604052809291908181526020018280546124df906136e6565b801561252c5780601f106125015761010080835404028352916020019161252c565b820191906000526020600020905b81548152906001019060200180831161250f57829003601f168201915b505050505081526020016002820160009054906101000a900473ffffffffffffffffffffffffffffffffffffffff1673ffffffffffffffffffffffffffffffffffffffff1673ffffffffffffffffffffffffffffffffffffffff1681526020016003820160009054906101000a900473ffffffffffffffffffffffffffffffffffffffff1673ffffffffffffffffffffffffffffffffffffffff1673ffffffffffffffffffffffffffffffffffffffff168152602001600482015481526020016005820154815260200160068201548152602001600782015481526020016008820154815260200160098201548152602001600a8201548152602001600b8201548152602001600c8201548152602001600d820160009054906101000a900460ff1615151515815250509050600081600001519050600061267a8360a0015186612c8990919063ffffffff16565b9050848273ffffffffffffffffffffffffffffffffffffffff166370a08231306040518263ffffffff1660e01b81526004016126b691906135d8565b602060405180830381865afa1580156126d3573d6000803e3d6000fd5b505050506040513d601f19601f820116820180604052508101906126f79190613608565b1015612738576040517f08c379a000000000000000000000000000000000000000000000000000000000815260040161272f90613d44565b60405180910390fd5b826101600151341115612780576040517f08c379a000000000000000000000000000000000000000000000000000000000815260040161277790613a88565b60405180910390fd5b8261016001513411156127c8576040517f08c379a00000000000000000000000000000000000000000000000000000000081526004016127bf90613a88565b60405180910390fd5b428360e00151101561280f576040517f08c379a000000000000000000000000000000000000000000000000000000000815260040161280690613db0565b60405180910390fd5b826060015173ffffffffffffffffffffffffffffffffffffffff166108fc829081150290604051600060405180830381858888f19350505050158015612859573d6000803e3d6000fd5b508173ffffffffffffffffffffffffffffffffffffffff1663095ea7b333876040518363ffffffff1660e01b8152600401612895929190613635565b6020604051808303816000875af11580156128b4573d6000803e3d6000fd5b505050506040513d601f19601f820116820180604052508101906128d8919061368a565b508173ffffffffffffffffffffffffffffffffffffffff166323b872dd3033886040518463ffffffff1660e01b81526004016129169392919061379d565b6020604051808303816000875af1158015612935573d6000803e3d6000fd5b505050506040513d601f19601f82011682018060405250810190612959919061368a565b5084836080015161296a9190613cc4565b8361018001818152505084867f8f19aa465428be23bb43dbefa550c7f162105b0f974a81a7cf431bc249c354a160405160405180910390a36001600360003373ffffffffffffffffffffffffffffffffffffffff1673ffffffffffffffffffffffffffffffffffffffff16815260200190815260200160002060006101000a81548160ff02191690831515021790555060046000815480929190612a0d90613dd0565b91905055506001935050505092915050565b600080600060606000806000806000806000806000600260008f815260200190815260200160002090508060000160009054906101000a900473ffffffffffffffffffffffffffffffffffffffff168160030160009054906101000a900473ffffffffffffffffffffffffffffffffffffffff168260020160009054906101000a900473ffffffffffffffffffffffffffffffffffffffff1683600101846006015485600701548660080154876009015488600a015489600b01548a600c01548b60050154888054612af0906136e6565b80601f0160208091040260200160405190810160405280929190818152602001828054612b1c906136e6565b8015612b695780601f10612b3e57610100808354040283529160200191612b69565b820191906000526020600020905b815481529060010190602001808311612b4c57829003601f168201915b505050505098509c509c509c509c509c509c509c509c509c509c509c509c505091939597999b5091939597999b565b6002600083815260200190815260200160002060030160009054906101000a900473ffffffffffffffffffffffffffffffffffffffff1673ffffffffffffffffffffffffffffffffffffffff163373ffffffffffffffffffffffffffffffffffffffff1614612c3c576040517f08c379a0000000000000000000000000000000000000000000000000000000008152600401612c339061354c565b60405180910390fd5b8060026000848152602001908152602001600020600a018190555080827f0868e4adf9973236bcfe9d51249a7a4822e5f8465d8f79711671cef55952678d60405160405180910390a35050565b600080831415612c9c5760009050612cc6565b8183612ca89190613e19565b9050818382612cb79190613ea2565b14612cc557612cc4613ed3565b5b5b92915050565b60008183612cda9190613ea2565b905092915050565b828054612cee906136e6565b90600052602060002090601f016020900481019282612d105760008555612d57565b82601f10612d2957805160ff1916838001178555612d57565b82800160010185558215612d57579182015b82811115612d56578251825591602001919060010190612d3b565b5b509050612d649190612d68565b5090565b5b80821115612d81576000816000905550600101612d69565b5090565b6000604051905090565b600080fd5b600080fd5b6000819050919050565b612dac81612d99565b8114612db757600080fd5b50565b600081359050612dc981612da3565b92915050565b600080600060608486031215612de857612de7612d8f565b5b6000612df686828701612dba565b9350506020612e0786828701612dba565b9250506040612e1886828701612dba565b9150509250925092565b600073ffffffffffffffffffffffffffffffffffffffff82169050919050565b6000612e4d82612e22565b9050919050565b612e5d81612e42565b8114612e6857600080fd5b50565b600081359050612e7a81612e54565b92915050565b60008060408385031215612e9757612e96612d8f565b5b6000612ea585828601612dba565b9250506020612eb685828601612e6b565b9150509250929050565b60008115159050919050565b612ed581612ec0565b82525050565b6000602082019050612ef06000830184612ecc565b92915050565b600060208284031215612f0c57612f0b612d8f565b5b6000612f1a84828501612e6b565b91505092915050565b600060208284031215612f3957612f38612d8f565b5b6000612f4784828501612dba565b91505092915050565b60008060408385031215612f6757612f66612d8f565b5b6000612f7585828601612dba565b9250506020612f8685828601612dba565b9150509250929050565b612f9981612d99565b82525050565b6000602082019050612fb46000830184612f90565b92915050565b600080fd5b600080fd5b6000601f19601f8301169050919050565b7f4e487b7100000000000000000000000000000000000000000000000000000000600052604160045260246000fd5b61300d82612fc4565b810181811067ffffffffffffffff8211171561302c5761302b612fd5565b5b80604052505050565b600061303f612d85565b905061304b8282613004565b919050565b600067ffffffffffffffff82111561306b5761306a612fd5565b5b61307482612fc4565b9050602081019050919050565b82818337600083830152505050565b60006130a361309e84613050565b613035565b9050828152602081018484840111156130bf576130be612fbf565b5b6130ca848285613081565b509392505050565b600082601f8301126130e7576130e6612fba565b5b81356130f7848260208601613090565b91505092915050565b600061310b82612e42565b9050919050565b61311b81613100565b811461312657600080fd5b50565b60008135905061313881613112565b92915050565b60008060008060008060008060008060006101608c8e03121561316457613163612d8f565b5b60006131728e828f01612e6b565b9b505060208c013567ffffffffffffffff81111561319357613192612d94565b5b61319f8e828f016130d2565b9a505060406131b08e828f01613129565b99505060606131c18e828f01612dba565b98505060806131d28e828f01612dba565b97505060a06131e38e828f01612dba565b96505060c06131f48e828f01612dba565b95505060e06132058e828f01612dba565b9450506101006132178e828f01612dba565b9350506101206132298e828f01612dba565b92505061014061323b8e828f01612dba565b9150509295989b509295989b9093969950565b6000806000806000806000806000806101408b8d03121561327257613271612d8f565b5b60006132808d828e01612e6b565b9a505060208b013567ffffffffffffffff8111156132a1576132a0612d94565b5b6132ad8d828e016130d2565b99505060406132be8d828e01612dba565b98505060606132cf8d828e01612dba565b97505060806132e08d828e01612dba565b96505060a06132f18d828e01612dba565b95505060c06133028d828e01612dba565b94505060e06133138d828e01612dba565b9350506101006133258d828e01612dba565b9250506101206133378d828e01612dba565b9150509295989b9194979a5092959850565b61335281612e42565b82525050565b6000819050919050565b600061337d61337861337384612e22565b613358565b612e22565b9050919050565b600061338f82613362565b9050919050565b60006133a182613384565b9050919050565b6133b181613396565b82525050565b600081519050919050565b600082825260208201905092915050565b60005b838110156133f15780820151818401526020810190506133d6565b83811115613400576000848401525b50505050565b6000613411826133b7565b61341b81856133c2565b935061342b8185602086016133d3565b61343481612fc4565b840191505092915050565b600061018082019050613455600083018f613349565b613462602083018e613349565b61346f604083018d6133a8565b8181036060830152613481818c613406565b9050613490608083018b612f90565b61349d60a083018a612f90565b6134aa60c0830189612f90565b6134b760e0830188612f90565b6134c5610100830187612f90565b6134d3610120830186612f90565b6134e1610140830185612f90565b6134ef610160830184612f90565b9d9c50505050505050505050505050565b7f73656c6c65722063616e2063616c6c0000000000000000000000000000000000600082015250565b6000613536600f836133c2565b915061354182613500565b602082019050919050565b6000602082019050818103600083015261356581613529565b9050919050565b7f6f6e6c792073656c6c65722063616e2063616c6c000000000000000000000000600082015250565b60006135a26014836133c2565b91506135ad8261356c565b602082019050919050565b600060208201905081810360008301526135d181613595565b9050919050565b60006020820190506135ed6000830184613349565b92915050565b60008151905061360281612da3565b92915050565b60006020828403121561361e5761361d612d8f565b5b600061362c848285016135f3565b91505092915050565b600060408201905061364a6000830185613349565b6136576020830184612f90565b9392505050565b61366781612ec0565b811461367257600080fd5b50565b6000815190506136848161365e565b92915050565b6000602082840312156136a05761369f612d8f565b5b60006136ae84828501613675565b91505092915050565b7f4e487b7100000000000000000000000000000000000000000000000000000000600052602260045260246000fd5b600060028204905060018216806136fe57607f821691505b60208210811415613712576137116136b7565b5b50919050565b7f4e487b7100000000000000000000000000000000000000000000000000000000600052601160045260246000fd5b600061375282612d99565b915061375d83612d99565b9250827fffffffffffffffffffffffffffffffffffffffffffffffffffffffffffffffff0382111561379257613791613718565b5b828201905092915050565b60006060820190506137b26000830186613349565b6137bf6020830185613349565b6137cc6040830184612f90565b949350505050565b7f746f6b656e206f6e2070726573616c6520616c72656164790000000000000000600082015250565b600061380a6018836133c2565b9150613815826137d4565b602082019050919050565b60006020820190508181036000830152613839816137fd565b9050919050565b7f696e73756666696369656e7420616d6f756e7400000000000000000000000000600082015250565b60006138766013836133c2565b915061388182613840565b602082019050919050565b600060208201905081810360008301526138a581613869565b9050919050565b7f686172646361702073686f756c642062652067726561746572207468616e207360008201527f6f66746361700000000000000000000000000000000000000000000000000000602082015250565b60006139086026836133c2565b9150613913826138ac565b604082019050919050565b60006020820190508181036000830152613937816138fb565b9050919050565b7f6d6178696d756d20696e766573746d656e742073686f756c642062652067726560008201527f61746572207468616e206d696e696d756d20696e7665736d656e740000000000602082015250565b600061399a603b836133c2565b91506139a58261393e565b604082019050919050565b600060208201905081810360008301526139c98161398d565b9050919050565b7f41646472657373206861732070757263686173656420616c7265616479000000600082015250565b6000613a06601d836133c2565b9150613a11826139d0565b602082019050919050565b60006020820190508181036000830152613a35816139f9565b9050919050565b7f696e637265617365206d6178696d756d20696e766573746d656e742000000000600082015250565b6000613a72601c836133c2565b9150613a7d82613a3c565b602082019050919050565b60006020820190508181036000830152613aa181613a65565b9050919050565b7f6c657373207468616e206d696e696d756d20696e766573746d656e7420000000600082015250565b6000613ade601d836133c2565b9150613ae982613aa8565b602082019050919050565b60006020820190508181036000830152613b0d81613ad1565b9050919050565b7f70726573616c652073746174757320656e646564000000000000000000000000600082015250565b6000613b4a6014836133c2565b9150613b5582613b14565b602082019050919050565b60006020820190508181036000830152613b7981613b3d565b9050919050565b7f70726573616c652074696d6520656e6465640000000000000000000000000000600082015250565b6000613bb66012836133c2565b9150613bc182613b80565b602082019050919050565b60006020820190508181036000830152613be581613ba9565b9050919050565b7f70726573616c65206973206e6f74206163746976650000000000000000000000600082015250565b6000613c226015836133c2565b9150613c2d82613bec565b602082019050919050565b60006020820190508181036000830152613c5181613c15565b9050919050565b7f62616c616e6365206c6f77000000000000000000000000000000000000000000600082015250565b6000613c8e600b836133c2565b9150613c9982613c58565b602082019050919050565b60006020820190508181036000830152613cbd81613c81565b9050919050565b6000613ccf82612d99565b9150613cda83612d99565b925082821015613ced57613cec613718565b5b828203905092915050565b7f746f6b656e7320617265206e6f7420656e6f7567680000000000000000000000600082015250565b6000613d2e6015836133c2565b9150613d3982613cf8565b602082019050919050565b60006020820190508181036000830152613d5d81613d21565b9050919050565b7f70726573616c6520656e64656400000000000000000000000000000000000000600082015250565b6000613d9a600d836133c2565b9150613da582613d64565b602082019050919050565b60006020820190508181036000830152613dc981613d8d565b9050919050565b6000613ddb82612d99565b91507fffffffffffffffffffffffffffffffffffffffffffffffffffffffffffffffff821415613e0e57613e0d613718565b5b600182019050919050565b6000613e2482612d99565b9150613e2f83612d99565b9250817fffffffffffffffffffffffffffffffffffffffffffffffffffffffffffffffff0483118215151615613e6857613e67613718565b5b828202905092915050565b7f4e487b7100000000000000000000000000000000000000000000000000000000600052601260045260246000fd5b6000613ead82612d99565b9150613eb883612d99565b925082613ec857613ec7613e73565b5b828204905092915050565b7f4e487b7100000000000000000000000000000000000000000000000000000000600052600160045260246000fdfea2646970667358221220e541c59bf21a990d0742ad5a81e0a33ced417e9af73da83251fb9eee7c9d22bc64736f6c634300080a0033",
  "linkReferences": {},
  "deployedLinkReferences": {}
}