{
  "_format": "hh-sol-artifact-1",
  "contractName": "Airdrop1",
  "sourceName": "contracts/Airdrop1.sol",
  "abi": [
    {
      "inputs": [],
      "stateMutability": "nonpayable",
      "type": "constructor"
    },
    {
      "anonymous": false,
      "inputs": [
        {
          "indexed": true,
          "internalType": "address",
          "name": "user",
          "type": "address"
        }
      ],
      "name": "Claim",
      "type": "event"
    },
    {
      "inputs": [
        {
          "internalType": "uint256",
          "name": "airdropId",
          "type": "uint256"
        },
        {
          "internalType": "uint256",
          "name": "_amount",
          "type": "uint256"
        }
      ],
      "name": "addMoreTokens",
      "outputs": [],
      "stateMutability": "nonpayable",
      "type": "function"
    },
    {
      "inputs": [
        {
          "internalType": "uint256",
          "name": "airdropId",
          "type": "uint256"
        }
      ],
      "name": "claim",
      "outputs": [],
      "stateMutability": "nonpayable",
      "type": "function"
    },
    {
      "inputs": [
        {
          "internalType": "uint256",
          "name": "airdropId",
          "type": "uint256"
        }
      ],
      "name": "closeAirdrop",
      "outputs": [],
      "stateMutability": "nonpayable",
      "type": "function"
    },
    {
      "inputs": [
        {
          "internalType": "uint256",
          "name": "airdropId",
          "type": "uint256"
        }
      ],
      "name": "getAirdropDetails",
      "outputs": [
        {
          "internalType": "contract IERC20",
          "name": "",
          "type": "address"
        },
        {
          "internalType": "address",
          "name": "",
          "type": "address"
        },
        {
          "internalType": "uint256",
          "name": "",
          "type": "uint256"
        },
        {
          "internalType": "uint256",
          "name": "",
          "type": "uint256"
        },
        {
          "internalType": "address[]",
          "name": "",
          "type": "address[]"
        },
        {
          "internalType": "uint256",
          "name": "",
          "type": "uint256"
        },
        {
          "internalType": "bool",
          "name": "",
          "type": "bool"
        }
      ],
      "stateMutability": "view",
      "type": "function"
    },
    {
      "inputs": [
        {
          "internalType": "address",
          "name": "_token",
          "type": "address"
        },
        {
          "internalType": "uint256",
          "name": "_amount",
          "type": "uint256"
        },
        {
          "internalType": "uint256",
          "name": "_amountPeruser",
          "type": "uint256"
        }
      ],
      "name": "inititalize",
      "outputs": [],
      "stateMutability": "nonpayable",
      "type": "function"
    }
  ],
  "bytecode": "0x60806040526064600155600160025534801561001a57600080fd5b50336000806101000a81548173ffffffffffffffffffffffffffffffffffffffff021916908373ffffffffffffffffffffffffffffffffffffffff1602179055506118138061006a6000396000f3fe608060405234801561001057600080fd5b50600436106100575760003560e01c80630dee7d901461005c578063379607f514610078578063410a7c751461009457806357b6336d146100b0578063832acdb5146100cc575b600080fd5b61007660048036038101906100719190610e9e565b610102565b005b610092600480360381019061008d9190610e9e565b610257565b005b6100ae60048036038101906100a99190610f29565b61062f565b005b6100ca60048036038101906100c59190610f7c565b610a7c565b005b6100e660048036038101906100e19190610e9e565b610c5f565b6040516100f99796959493929190611112565b60405180910390f35b6003600082815260200190815260200160002060060160009054906101000a900460ff16610165576040517f08c379a000000000000000000000000000000000000000000000000000000000815260040161015c906111e5565b60405180910390fd5b3373ffffffffffffffffffffffffffffffffffffffff166003600083815260200190815260200160002060010160009054906101000a900473ffffffffffffffffffffffffffffffffffffffff1673ffffffffffffffffffffffffffffffffffffffff1614610209576040517f08c379a000000000000000000000000000000000000000000000000000000000815260040161020090611251565b60405180910390fd5b60006003600083815260200190815260200160002060060160006101000a81548160ff0219169083151502179055506000600360008381526020019081526020016000206003018190555050565b6003600082815260200190815260200160002060060160009054906101000a900460ff166102ba576040517f08c379a00000000000000000000000000000000000000000000000000000000081526004016102b1906111e5565b60405180910390fd5b3373ffffffffffffffffffffffffffffffffffffffff166004600083815260200190815260200160002060009054906101000a900473ffffffffffffffffffffffffffffffffffffffff1673ffffffffffffffffffffffffffffffffffffffff16141561035c576040517f08c379a0000000000000000000000000000000000000000000000000000000008152600401610353906112bd565b60405180910390fd5b6003600082815260200190815260200160002060050154600360008381526020019081526020016000206003015410156103cb576040517f08c379a00000000000000000000000000000000000000000000000000000000081526004016103c290611329565b60405180910390fd5b6003600082815260200190815260200160002060000160009054906101000a900473ffffffffffffffffffffffffffffffffffffffff1673ffffffffffffffffffffffffffffffffffffffff166323b872dd6003600084815260200190815260200160002060010160009054906101000a900473ffffffffffffffffffffffffffffffffffffffff163360036000868152602001908152602001600020600501546040518463ffffffff1660e01b815260040161048a93929190611349565b6020604051808303816000875af11580156104a9573d6000803e3d6000fd5b505050506040513d601f19601f820116820180604052508101906104cd91906113ac565b50600360008281526020019081526020016000206005015460036000838152602001908152602001600020600301546105069190611408565b600360008381526020019081526020016000206003018190555060036000828152602001908152602001600020600401339080600181540180825580915050600190039060005260206000200160009091909190916101000a81548173ffffffffffffffffffffffffffffffffffffffff021916908373ffffffffffffffffffffffffffffffffffffffff160217905550336004600083815260200190815260200160002060006101000a81548173ffffffffffffffffffffffffffffffffffffffff021916908373ffffffffffffffffffffffffffffffffffffffff1602179055503373ffffffffffffffffffffffffffffffffffffffff167f0c7ef932d3b91976772937f18d5ef9b39a9930bef486b576c374f047c4b512dc60405160405180910390a250565b60008390508073ffffffffffffffffffffffffffffffffffffffff1660036000600254815260200190815260200160002060000160009054906101000a900473ffffffffffffffffffffffffffffffffffffffff1673ffffffffffffffffffffffffffffffffffffffff1614156106db576040517f08c379a00000000000000000000000000000000000000000000000000000000081526004016106d290611488565b60405180910390fd5b60036000600254815260200190815260200160002060000160009054906101000a900473ffffffffffffffffffffffffffffffffffffffff1673ffffffffffffffffffffffffffffffffffffffff1663095ea7b330856040518363ffffffff1660e01b815260040161074e9291906114a8565b6020604051808303816000875af115801561076d573d6000803e3d6000fd5b505050506040513d601f19601f8201168201806040525081019061079191906113ac565b508060036000600254815260200190815260200160002060000160006101000a81548173ffffffffffffffffffffffffffffffffffffffff021916908373ffffffffffffffffffffffffffffffffffffffff1602179055503360036000600254815260200190815260200160002060010160006101000a81548173ffffffffffffffffffffffffffffffffffffffff021916908373ffffffffffffffffffffffffffffffffffffffff160217905550826003600060025481526020019081526020016000206002018190555082600360006002548152602001908152602001600020600301819055508160036000600254815260200190815260200160002060050181905550600160036000600254815260200190815260200160002060060160006101000a81548160ff02191690831515021790555060036000600254815260200190815260200160002060000160009054906101000a900473ffffffffffffffffffffffffffffffffffffffff1673ffffffffffffffffffffffffffffffffffffffff1663a9059cbb60008054906101000a900473ffffffffffffffffffffffffffffffffffffffff1660036000600254815260200190815260200160002060000160009054906101000a900473ffffffffffffffffffffffffffffffffffffffff1673ffffffffffffffffffffffffffffffffffffffff1663313ce5676040518163ffffffff1660e01b8152600401602060405180830381865afa1580156109c0573d6000803e3d6000fd5b505050506040513d601f19601f820116820180604052508101906109e4919061150a565b600a6109f0919061166a565b6001546109fd91906116b5565b6040518363ffffffff1660e01b8152600401610a1a9291906114a8565b6020604051808303816000875af1158015610a39573d6000803e3d6000fd5b505050506040513d601f19601f82011682018060405250810190610a5d91906113ac565b5060026000815480929190610a719061170f565b919050555050505050565b3373ffffffffffffffffffffffffffffffffffffffff166003600084815260200190815260200160002060010160009054906101000a900473ffffffffffffffffffffffffffffffffffffffff1673ffffffffffffffffffffffffffffffffffffffff1614610b20576040517f08c379a0000000000000000000000000000000000000000000000000000000008152600401610b1790611251565b60405180910390fd5b610b49816003600085815260200190815260200160002060020154610e3c90919063ffffffff16565b6003600084815260200190815260200160002060020181905550610b8c816003600085815260200190815260200160002060030154610e3c90919063ffffffff16565b60036000848152602001908152602001600020600201819055506003600083815260200190815260200160002060000160009054906101000a900473ffffffffffffffffffffffffffffffffffffffff1673ffffffffffffffffffffffffffffffffffffffff1663095ea7b330836040518363ffffffff1660e01b8152600401610c179291906114a8565b6020604051808303816000875af1158015610c36573d6000803e3d6000fd5b505050506040513d601f19601f82011682018060405250810190610c5a91906113ac565b505050565b60008060008060606000806000600360008a81526020019081526020016000206040518060e00160405290816000820160009054906101000a900473ffffffffffffffffffffffffffffffffffffffff1673ffffffffffffffffffffffffffffffffffffffff1673ffffffffffffffffffffffffffffffffffffffff1681526020016001820160009054906101000a900473ffffffffffffffffffffffffffffffffffffffff1673ffffffffffffffffffffffffffffffffffffffff1673ffffffffffffffffffffffffffffffffffffffff168152602001600282015481526020016003820154815260200160048201805480602002602001604051908101604052809291908181526020018280548015610dcf57602002820191906000526020600020905b8160009054906101000a900473ffffffffffffffffffffffffffffffffffffffff1673ffffffffffffffffffffffffffffffffffffffff1681526020019060010190808311610d85575b50505050508152602001600582015481526020016006820160009054906101000a900460ff1615151515815250509050806000015181602001518260400151836060015184608001518560a001518660c00151975097509750975097509750975050919395979092949650565b60008183610e4a9190611758565b905082811015610e5d57610e5c6117ae565b5b92915050565b600080fd5b6000819050919050565b610e7b81610e68565b8114610e8657600080fd5b50565b600081359050610e9881610e72565b92915050565b600060208284031215610eb457610eb3610e63565b5b6000610ec284828501610e89565b91505092915050565b600073ffffffffffffffffffffffffffffffffffffffff82169050919050565b6000610ef682610ecb565b9050919050565b610f0681610eeb565b8114610f1157600080fd5b50565b600081359050610f2381610efd565b92915050565b600080600060608486031215610f4257610f41610e63565b5b6000610f5086828701610f14565b9350506020610f6186828701610e89565b9250506040610f7286828701610e89565b9150509250925092565b60008060408385031215610f9357610f92610e63565b5b6000610fa185828601610e89565b9250506020610fb285828601610e89565b9150509250929050565b6000819050919050565b6000610fe1610fdc610fd784610ecb565b610fbc565b610ecb565b9050919050565b6000610ff382610fc6565b9050919050565b600061100582610fe8565b9050919050565b61101581610ffa565b82525050565b61102481610eeb565b82525050565b61103381610e68565b82525050565b600081519050919050565b600082825260208201905092915050565b6000819050602082019050919050565b61106e81610eeb565b82525050565b60006110808383611065565b60208301905092915050565b6000602082019050919050565b60006110a482611039565b6110ae8185611044565b93506110b983611055565b8060005b838110156110ea5781516110d18882611074565b97506110dc8361108c565b9250506001810190506110bd565b5085935050505092915050565b60008115159050919050565b61110c816110f7565b82525050565b600060e082019050611127600083018a61100c565b611134602083018961101b565b611141604083018861102a565b61114e606083018761102a565b81810360808301526111608186611099565b905061116f60a083018561102a565b61117c60c0830184611103565b98975050505050505050565b600082825260208201905092915050565b7f6e6f742061637469766500000000000000000000000000000000000000000000600082015250565b60006111cf600a83611188565b91506111da82611199565b602082019050919050565b600060208201905081810360008301526111fe816111c2565b9050919050565b7f696e76616c696420757365720000000000000000000000000000000000000000600082015250565b600061123b600c83611188565b915061124682611205565b602082019050919050565b6000602082019050818103600083015261126a8161122e565b9050919050565b7f616c726561647920636c61696d65640000000000000000000000000000000000600082015250565b60006112a7600f83611188565b91506112b282611271565b602082019050919050565b600060208201905081810360008301526112d68161129a565b9050919050565b7f696e73756666696369656e742072656d61696e696e6720616d6f756e74000000600082015250565b6000611313601d83611188565b915061131e826112dd565b602082019050919050565b6000602082019050818103600083015261134281611306565b9050919050565b600060608201905061135e600083018661101b565b61136b602083018561101b565b611378604083018461102a565b949350505050565b611389816110f7565b811461139457600080fd5b50565b6000815190506113a681611380565b92915050565b6000602082840312156113c2576113c1610e63565b5b60006113d084828501611397565b91505092915050565b7f4e487b7100000000000000000000000000000000000000000000000000000000600052601160045260246000fd5b600061141382610e68565b915061141e83610e68565b925082821015611431576114306113d9565b5b828203905092915050565b7f616c72656164792061697264726f707065640000000000000000000000000000600082015250565b6000611472601283611188565b915061147d8261143c565b602082019050919050565b600060208201905081810360008301526114a181611465565b9050919050565b60006040820190506114bd600083018561101b565b6114ca602083018461102a565b9392505050565b600060ff82169050919050565b6114e7816114d1565b81146114f257600080fd5b50565b600081519050611504816114de565b92915050565b6000602082840312156115205761151f610e63565b5b600061152e848285016114f5565b91505092915050565b60008160011c9050919050565b6000808291508390505b600185111561158e5780860481111561156a576115696113d9565b5b60018516156115795780820291505b808102905061158785611537565b945061154e565b94509492505050565b6000826115a75760019050611663565b816115b55760009050611663565b81600181146115cb57600281146115d557611604565b6001915050611663565b60ff8411156115e7576115e66113d9565b5b8360020a9150848211156115fe576115fd6113d9565b5b50611663565b5060208310610133831016604e8410600b84101617156116395782820a905083811115611634576116336113d9565b5b611663565b6116468484846001611544565b9250905081840481111561165d5761165c6113d9565b5b81810290505b9392505050565b600061167582610e68565b9150611680836114d1565b92506116ad7fffffffffffffffffffffffffffffffffffffffffffffffffffffffffffffffff8484611597565b905092915050565b60006116c082610e68565b91506116cb83610e68565b9250817fffffffffffffffffffffffffffffffffffffffffffffffffffffffffffffffff0483118215151615611704576117036113d9565b5b828202905092915050565b600061171a82610e68565b91507fffffffffffffffffffffffffffffffffffffffffffffffffffffffffffffffff82141561174d5761174c6113d9565b5b600182019050919050565b600061176382610e68565b915061176e83610e68565b9250827fffffffffffffffffffffffffffffffffffffffffffffffffffffffffffffffff038211156117a3576117a26113d9565b5b828201905092915050565b7f4e487b7100000000000000000000000000000000000000000000000000000000600052600160045260246000fdfea2646970667358221220ed45774d2b76c5d70806c4cd4d577c69e8e1d46a4011ab85a607620a2012de8364736f6c634300080a0033",
  "linkReferences": {},
  "deployedLinkReferences": {}
}