{
  "_format": "hh-sol-artifact-1",
  "contractName": "Presale",
  "sourceName": "contracts/Presale.sol",
  "abi": [
    {
      "inputs": [],
      "stateMutability": "nonpayable",
      "type": "constructor"
    },
    {
      "anonymous": false,
      "inputs": [
        {
          "indexed": true,
          "internalType": "address",
          "name": "user",
          "type": "address"
        },
        {
          "indexed": true,
          "internalType": "uint256",
          "name": "amountOfToken",
          "type": "uint256"
        }
      ],
      "name": "BUY",
      "type": "event"
    },
    {
      "inputs": [
        {
          "internalType": "uint256",
          "name": "presaleId",
          "type": "uint256"
        },
        {
          "internalType": "uint256",
          "name": "_amount",
          "type": "uint256"
        }
      ],
      "name": "addMoreTokens",
      "outputs": [],
      "stateMutability": "nonpayable",
      "type": "function"
    },
    {
      "inputs": [
        {
          "internalType": "uint256",
          "name": "presaleId",
          "type": "uint256"
        }
      ],
      "name": "buy",
      "outputs": [],
      "stateMutability": "payable",
      "type": "function"
    },
    {
      "inputs": [
        {
          "internalType": "uint256",
          "name": "presaleId",
          "type": "uint256"
        }
      ],
      "name": "closePresale",
      "outputs": [],
      "stateMutability": "nonpayable",
      "type": "function"
    },
    {
      "inputs": [
        {
          "internalType": "uint256",
          "name": "presaleId",
          "type": "uint256"
        }
      ],
      "name": "getPresaleDetails",
      "outputs": [
        {
          "internalType": "contract IERC20",
          "name": "",
          "type": "address"
        },
        {
          "internalType": "address",
          "name": "",
          "type": "address"
        },
        {
          "internalType": "uint256",
          "name": "",
          "type": "uint256"
        },
        {
          "internalType": "uint256",
          "name": "",
          "type": "uint256"
        },
        {
          "internalType": "address[]",
          "name": "",
          "type": "address[]"
        },
        {
          "internalType": "uint256",
          "name": "",
          "type": "uint256"
        },
        {
          "internalType": "bool",
          "name": "",
          "type": "bool"
        }
      ],
      "stateMutability": "view",
      "type": "function"
    },
    {
      "inputs": [
        {
          "internalType": "address",
          "name": "_token",
          "type": "address"
        },
        {
          "internalType": "uint256",
          "name": "_amount",
          "type": "uint256"
        },
        {
          "internalType": "uint256",
          "name": "_price",
          "type": "uint256"
        }
      ],
      "name": "inititalize",
      "outputs": [],
      "stateMutability": "payable",
      "type": "function"
    }
  ],
  "bytecode": "0x6080604052655af3107a4000600155600160025534801561001f57600080fd5b50336000806101000a81548173ffffffffffffffffffffffffffffffffffffffff021916908373ffffffffffffffffffffffffffffffffffffffff16021790555061166f8061006f6000396000f3fe60806040526004361061004a5760003560e01c8063410a7c751461004f57806357b6336d1461006b578063bda75e6d14610094578063d96a094a146100d7578063e911b963146100f3575b600080fd5b61006960048036038101906100649190610e70565b61011c565b005b34801561007757600080fd5b50610092600480360381019061008d9190610ec3565b610480565b005b3480156100a057600080fd5b506100bb60048036038101906100b69190610f03565b610665565b6040516100ce9796959493929190611086565b60405180910390f35b6100f160048036038101906100ec9190610f03565b610842565b005b3480156100ff57600080fd5b5061011a60048036038101906101159190610f03565b610b7a565b005b60008390508073ffffffffffffffffffffffffffffffffffffffff1660036000600254815260200190815260200160002060000160009054906101000a900473ffffffffffffffffffffffffffffffffffffffff1673ffffffffffffffffffffffffffffffffffffffff1614156101c8576040517f08c379a00000000000000000000000000000000000000000000000000000000081526004016101bf90611159565b60405180910390fd5b600154341461020c576040517f08c379a0000000000000000000000000000000000000000000000000000000008152600401610203906111c5565b60405180910390fd5b60036000600254815260200190815260200160002060000160009054906101000a900473ffffffffffffffffffffffffffffffffffffffff1673ffffffffffffffffffffffffffffffffffffffff166323b872dd3330866040518463ffffffff1660e01b8152600401610281939291906111e5565b6020604051808303816000875af11580156102a0573d6000803e3d6000fd5b505050506040513d601f19601f820116820180604052508101906102c49190611248565b508060036000600254815260200190815260200160002060000160006101000a81548173ffffffffffffffffffffffffffffffffffffffff021916908373ffffffffffffffffffffffffffffffffffffffff1602179055503360036000600254815260200190815260200160002060010160006101000a81548173ffffffffffffffffffffffffffffffffffffffff021916908373ffffffffffffffffffffffffffffffffffffffff160217905550826003600060025481526020019081526020016000206002018190555082600360006002548152602001908152602001600020600401819055508160036000600254815260200190815260200160002060030181905550600160036000600254815260200190815260200160002060060160006101000a81548160ff02191690831515021790555060008054906101000a900473ffffffffffffffffffffffffffffffffffffffff1673ffffffffffffffffffffffffffffffffffffffff166108fc349081150290604051600060405180830381858888f19350505050158015610461573d6000803e3d6000fd5b5060026000815480929190610475906112a4565b919050555050505050565b3373ffffffffffffffffffffffffffffffffffffffff166003600084815260200190815260200160002060010160009054906101000a900473ffffffffffffffffffffffffffffffffffffffff1673ffffffffffffffffffffffffffffffffffffffff1614610524576040517f08c379a000000000000000000000000000000000000000000000000000000000815260040161051b90611339565b60405180910390fd5b61054d816003600085815260200190815260200160002060020154610d9a90919063ffffffff16565b6003600084815260200190815260200160002060020181905550610590816003600085815260200190815260200160002060040154610d9a90919063ffffffff16565b60036000848152602001908152602001600020600201819055506003600083815260200190815260200160002060000160009054906101000a900473ffffffffffffffffffffffffffffffffffffffff1673ffffffffffffffffffffffffffffffffffffffff166323b872dd3330846040518463ffffffff1660e01b815260040161061d939291906111e5565b6020604051808303816000875af115801561063c573d6000803e3d6000fd5b505050506040513d601f19601f820116820180604052508101906106609190611248565b505050565b60008060008060606000806000600360008a81526020019081526020016000206040518060e00160405290816000820160009054906101000a900473ffffffffffffffffffffffffffffffffffffffff1673ffffffffffffffffffffffffffffffffffffffff1673ffffffffffffffffffffffffffffffffffffffff1681526020016001820160009054906101000a900473ffffffffffffffffffffffffffffffffffffffff1673ffffffffffffffffffffffffffffffffffffffff1673ffffffffffffffffffffffffffffffffffffffff168152602001600282015481526020016003820154815260200160048201548152602001600582018054806020026020016040519081016040528092919081815260200182805480156107df57602002820191906000526020600020905b8160009054906101000a900473ffffffffffffffffffffffffffffffffffffffff1673ffffffffffffffffffffffffffffffffffffffff1681526020019060010190808311610795575b505050505081526020016006820160009054906101000a900460ff161515151581525050905080600001518160200151826040015183608001518460a0015185606001518660c00151975097509750975097509750975050919395979092949650565b6003600082815260200190815260200160002060060160009054906101000a900460ff166108a5576040517f08c379a000000000000000000000000000000000000000000000000000000000815260040161089c906113a5565b60405180910390fd5b60036000828152602001908152602001600020600301543410156108fe576040517f08c379a00000000000000000000000000000000000000000000000000000000081526004016108f590611411565b60405180910390fd5b6000610929600360008481526020019081526020016000206003015434610dc190919063ffffffff16565b905034816109379190611431565b90508060036000848152602001908152602001600020600401541015610992576040517f08c379a0000000000000000000000000000000000000000000000000000000008152600401610989906114d7565b60405180910390fd5b6003600083815260200190815260200160002060000160009054906101000a900473ffffffffffffffffffffffffffffffffffffffff1673ffffffffffffffffffffffffffffffffffffffff166323b872dd6003600085815260200190815260200160002060010160009054906101000a900473ffffffffffffffffffffffffffffffffffffffff1633846040518463ffffffff1660e01b8152600401610a3b939291906111e5565b6020604051808303816000875af1158015610a5a573d6000803e3d6000fd5b505050506040513d601f19601f82011682018060405250810190610a7e9190611248565b50806003600084815260200190815260200160002060040154610aa191906114f7565b600360008481526020019081526020016000206004018190555060036000838152602001908152602001600020600501339080600181540180825580915050600190039060005260206000200160009091909190916101000a81548173ffffffffffffffffffffffffffffffffffffffff021916908373ffffffffffffffffffffffffffffffffffffffff160217905550803373ffffffffffffffffffffffffffffffffffffffff167f11c42a99bcddc27eea781499d4d35f138c3b2fbd9da68cdd570892a40838222b60405160405180910390a35050565b6003600082815260200190815260200160002060060160009054906101000a900460ff16610bdd576040517f08c379a0000000000000000000000000000000000000000000000000000000008152600401610bd4906113a5565b60405180910390fd5b3373ffffffffffffffffffffffffffffffffffffffff166003600083815260200190815260200160002060010160009054906101000a900473ffffffffffffffffffffffffffffffffffffffff1673ffffffffffffffffffffffffffffffffffffffff1614610c81576040517f08c379a0000000000000000000000000000000000000000000000000000000008152600401610c7890611339565b60405180910390fd5b60006003600083815260200190815260200160002060060160006101000a81548160ff0219169083151502179055506003600082815260200190815260200160002060000160009054906101000a900473ffffffffffffffffffffffffffffffffffffffff1673ffffffffffffffffffffffffffffffffffffffff1663a9059cbb3360036000858152602001908152602001600020600401546040518363ffffffff1660e01b8152600401610d3792919061152b565b6020604051808303816000875af1158015610d56573d6000803e3d6000fd5b505050506040513d601f19601f82011682018060405250810190610d7a9190611248565b506000600360008381526020019081526020016000206004018190555050565b60008183610da89190611554565b905082811015610dbb57610dba6115aa565b5b92915050565b60008183610dcf9190611608565b905092915050565b600080fd5b600073ffffffffffffffffffffffffffffffffffffffff82169050919050565b6000610e0782610ddc565b9050919050565b610e1781610dfc565b8114610e2257600080fd5b50565b600081359050610e3481610e0e565b92915050565b6000819050919050565b610e4d81610e3a565b8114610e5857600080fd5b50565b600081359050610e6a81610e44565b92915050565b600080600060608486031215610e8957610e88610dd7565b5b6000610e9786828701610e25565b9350506020610ea886828701610e5b565b9250506040610eb986828701610e5b565b9150509250925092565b60008060408385031215610eda57610ed9610dd7565b5b6000610ee885828601610e5b565b9250506020610ef985828601610e5b565b9150509250929050565b600060208284031215610f1957610f18610dd7565b5b6000610f2784828501610e5b565b91505092915050565b6000819050919050565b6000610f55610f50610f4b84610ddc565b610f30565b610ddc565b9050919050565b6000610f6782610f3a565b9050919050565b6000610f7982610f5c565b9050919050565b610f8981610f6e565b82525050565b610f9881610dfc565b82525050565b610fa781610e3a565b82525050565b600081519050919050565b600082825260208201905092915050565b6000819050602082019050919050565b610fe281610dfc565b82525050565b6000610ff48383610fd9565b60208301905092915050565b6000602082019050919050565b600061101882610fad565b6110228185610fb8565b935061102d83610fc9565b8060005b8381101561105e5781516110458882610fe8565b975061105083611000565b925050600181019050611031565b5085935050505092915050565b60008115159050919050565b6110808161106b565b82525050565b600060e08201905061109b600083018a610f80565b6110a86020830189610f8f565b6110b56040830188610f9e565b6110c26060830187610f9e565b81810360808301526110d4818661100d565b90506110e360a0830185610f9e565b6110f060c0830184611077565b98975050505050505050565b600082825260208201905092915050565b7f616c72656164792050726573616c65204f6e0000000000000000000000000000600082015250565b60006111436012836110fc565b915061114e8261110d565b602082019050919050565b6000602082019050818103600083015261117281611136565b9050919050565b7f302e303030312069732074686520706c6174666f726665657300000000000000600082015250565b60006111af6019836110fc565b91506111ba82611179565b602082019050919050565b600060208201905081810360008301526111de816111a2565b9050919050565b60006060820190506111fa6000830186610f8f565b6112076020830185610f8f565b6112146040830184610f9e565b949350505050565b6112258161106b565b811461123057600080fd5b50565b6000815190506112428161121c565b92915050565b60006020828403121561125e5761125d610dd7565b5b600061126c84828501611233565b91505092915050565b7f4e487b7100000000000000000000000000000000000000000000000000000000600052601160045260246000fd5b60006112af82610e3a565b91507fffffffffffffffffffffffffffffffffffffffffffffffffffffffffffffffff8214156112e2576112e1611275565b5b600182019050919050565b7f696e76616c696420757365720000000000000000000000000000000000000000600082015250565b6000611323600c836110fc565b915061132e826112ed565b602082019050919050565b6000602082019050818103600083015261135281611316565b9050919050565b7f6e6f742061637469766500000000000000000000000000000000000000000000600082015250565b600061138f600a836110fc565b915061139a82611359565b602082019050919050565b600060208201905081810360008301526113be81611382565b9050919050565b7f76616c7565206c657373207468616e2070726963652000000000000000000000600082015250565b60006113fb6016836110fc565b9150611406826113c5565b602082019050919050565b6000602082019050818103600083015261142a816113ee565b9050919050565b600061143c82610e3a565b915061144783610e3a565b9250817fffffffffffffffffffffffffffffffffffffffffffffffffffffffffffffffff04831182151516156114805761147f611275565b5b828202905092915050565b7f696e73756666696369656e742072656d61696e696e6720616d6f756e74000000600082015250565b60006114c1601d836110fc565b91506114cc8261148b565b602082019050919050565b600060208201905081810360008301526114f0816114b4565b9050919050565b600061150282610e3a565b915061150d83610e3a565b9250828210156115205761151f611275565b5b828203905092915050565b60006040820190506115406000830185610f8f565b61154d6020830184610f9e565b9392505050565b600061155f82610e3a565b915061156a83610e3a565b9250827fffffffffffffffffffffffffffffffffffffffffffffffffffffffffffffffff0382111561159f5761159e611275565b5b828201905092915050565b7f4e487b7100000000000000000000000000000000000000000000000000000000600052600160045260246000fd5b7f4e487b7100000000000000000000000000000000000000000000000000000000600052601260045260246000fd5b600061161382610e3a565b915061161e83610e3a565b92508261162e5761162d6115d9565b5b82820490509291505056fea26469706673582212208fc6f32971023ca70f0f1341e45b34e1fcfa46729c39510953c332757b2ce12464736f6c634300080a0033",
  "linkReferences": {},
  "deployedLinkReferences": {}
}